{
  "contractName": "MyContract",
  "abi": [
    {
      "inputs": [
        {
          "internalType": "address",
          "name": "_link",
          "type": "address"
        }
      ],
      "stateMutability": "nonpayable",
      "type": "constructor"
    },
    {
      "anonymous": false,
      "inputs": [
        {
          "indexed": true,
          "internalType": "bytes32",
          "name": "id",
          "type": "bytes32"
        }
      ],
      "name": "ChainlinkCancelled",
      "type": "event"
    },
    {
      "anonymous": false,
      "inputs": [
        {
          "indexed": true,
          "internalType": "bytes32",
          "name": "id",
          "type": "bytes32"
        }
      ],
      "name": "ChainlinkFulfilled",
      "type": "event"
    },
    {
      "anonymous": false,
      "inputs": [
        {
          "indexed": true,
          "internalType": "bytes32",
          "name": "id",
          "type": "bytes32"
        }
      ],
      "name": "ChainlinkRequested",
      "type": "event"
    },
    {
      "inputs": [
        {
          "internalType": "uint256",
          "name": "",
          "type": "uint256"
        }
      ],
      "name": "clips",
      "outputs": [
        {
          "internalType": "string",
          "name": "c",
          "type": "string"
        }
      ],
      "stateMutability": "view",
      "type": "function",
      "constant": true
    },
    {
      "inputs": [],
      "name": "data",
      "outputs": [
        {
          "internalType": "bytes32",
          "name": "",
          "type": "bytes32"
        }
      ],
      "stateMutability": "view",
      "type": "function",
      "constant": true
    },
    {
      "inputs": [],
      "name": "image_url",
      "outputs": [
        {
          "internalType": "string",
          "name": "",
          "type": "string"
        }
      ],
      "stateMutability": "view",
      "type": "function",
      "constant": true
    },
    {
      "inputs": [],
      "name": "getChainlinkToken",
      "outputs": [
        {
          "internalType": "address",
          "name": "",
          "type": "address"
        }
      ],
      "stateMutability": "view",
      "type": "function",
      "constant": true
    },
    {
      "inputs": [
        {
          "internalType": "string",
          "name": "_url",
          "type": "string"
        },
        {
          "internalType": "string",
          "name": "_path",
          "type": "string"
        }
      ],
      "name": "createRequestTo",
      "outputs": [
        {
          "internalType": "bytes32",
          "name": "requestId",
          "type": "bytes32"
        }
      ],
      "stateMutability": "nonpayable",
      "type": "function"
    },
    {
      "inputs": [
        {
          "internalType": "bytes32",
          "name": "_requestId",
          "type": "bytes32"
        },
        {
          "internalType": "bytes32",
          "name": "_data",
          "type": "bytes32"
        }
      ],
      "name": "fulfill",
      "outputs": [],
      "stateMutability": "nonpayable",
      "type": "function"
    },
    {
      "inputs": [],
      "name": "getNumberOfClips",
      "outputs": [
        {
          "internalType": "uint256",
          "name": "",
          "type": "uint256"
        }
      ],
      "stateMutability": "view",
      "type": "function",
      "constant": true
    },
    {
      "inputs": [],
      "name": "withdrawLink",
      "outputs": [],
      "stateMutability": "nonpayable",
      "type": "function"
    },
    {
      "inputs": [
        {
          "internalType": "bytes32",
          "name": "_requestId",
          "type": "bytes32"
        },
        {
          "internalType": "uint256",
          "name": "_payment",
          "type": "uint256"
        },
        {
          "internalType": "bytes4",
          "name": "_callbackFunctionId",
          "type": "bytes4"
        },
        {
          "internalType": "uint256",
          "name": "_expiration",
          "type": "uint256"
        }
      ],
      "name": "cancelRequest",
      "outputs": [],
      "stateMutability": "nonpayable",
      "type": "function"
    },
    {
      "inputs": [
        {
          "internalType": "bytes32",
          "name": "_bytes32",
          "type": "bytes32"
        }
      ],
      "name": "bytes32ToString",
      "outputs": [
        {
          "internalType": "string",
          "name": "",
          "type": "string"
        }
      ],
      "stateMutability": "pure",
      "type": "function",
      "constant": true
    }
  ],
  "bytecode": "0x608060405260016004553480156200001657600080fd5b506040516200233a3803806200233a83398181016040528101906200003c91906200020d565b600073ffffffffffffffffffffffffffffffffffffffff168173ffffffffffffffffffffffffffffffffffffffff161415620000885762000082620000c660201b60201c565b6200009a565b62000099816200016e60201b60201c565b5b620000bf73f405b99aca8578b9eb989ee2b69d518aadb90c1f620001b260201b60201c565b5062000287565b6200016c73c89bd4e1632d3a43cb03aaad5262cbe4038bc57173ffffffffffffffffffffffffffffffffffffffff166338cc48316040518163ffffffff1660e01b815260040160206040518083038186803b1580156200012557600080fd5b505afa1580156200013a573d6000803e3d6000fd5b505050506040513d601f19601f820116820180604052508101906200016091906200020d565b6200016e60201b60201c565b565b80600260006101000a81548173ffffffffffffffffffffffffffffffffffffffff021916908373ffffffffffffffffffffffffffffffffffffffff16021790555050565b80600360006101000a81548173ffffffffffffffffffffffffffffffffffffffff021916908373ffffffffffffffffffffffffffffffffffffffff16021790555050565b60008151905062000207816200026d565b92915050565b6000602082840312156200022057600080fd5b60006200023084828501620001f6565b91505092915050565b600062000246826200024d565b9050919050565b600073ffffffffffffffffffffffffffffffffffffffff82169050919050565b620002788162000239565b81146200028457600080fd5b50565b6120a380620002976000396000f3fe608060405234801561001057600080fd5b506004361061009e5760003560e01c8063824f4baf11610066578063824f4baf146101495780638dc654a2146101675780639201de5514610171578063c54a44a7146101a1578063ec65d0f8146101d15761009e565b8063042f2b65146100a357806310e31dcb146100bf578063165d35e1146100ef57806373d4a13a1461010d578063761fc5251461012b575b600080fd5b6100bd60048036038101906100b8919061151b565b6101ed565b005b6100d960048036038101906100d491906115ba565b610363565b6040516100e69190611993565b60405180910390f35b6100f761045e565b604051610104919061188c565b60405180910390f35b61011561046d565b6040516101229190611993565b60405180910390f35b610133610473565b6040516101409190611a75565b60405180910390f35b610151610480565b60405161015e91906119f3565b60405180910390f35b61016f61050e565b005b61018b600480360381019061018691906114f2565b610671565b60405161019891906119f3565b60405180910390f35b6101bb60048036038101906101b69190611626565b6108ca565b6040516101c891906119f3565b60405180910390f35b6101eb60048036038101906101e69190611557565b61097c565b005b816005600082815260200190815260200160002060009054906101000a900473ffffffffffffffffffffffffffffffffffffffff1673ffffffffffffffffffffffffffffffffffffffff163373ffffffffffffffffffffffffffffffffffffffff161461028f576040517f08c379a000000000000000000000000000000000000000000000000000000000815260040161028690611a55565b60405180910390fd5b6005600082815260200190815260200160002060006101000a81549073ffffffffffffffffffffffffffffffffffffffff0219169055807f7cc135e0cebb02c3480ae5d74d377283180a2601f8f644edf7987b009316c63a60405160405180910390a2816006819055506000610306600654610671565b9050600860405180602001604052808381525090806001815401808255809150506001900390600052602060002001600090919091909150600082015181600001908051906020019061035a9291906112ce565b50505050505050565b6000806103987f37633462393638303238663734623265616264376434323866303362613435633063042f2b6560e01b61098e565b90506103e46040518060400160405280600381526020017f676574000000000000000000000000000000000000000000000000000000000081525085836109bf9092919063ffffffff16565b61042e6040518060400160405280600481526020017f706174680000000000000000000000000000000000000000000000000000000081525084836109bf9092919063ffffffff16565b61045573f405b99aca8578b9eb989ee2b69d518aadb90c1f8267016345785d8a00006109f2565b91505092915050565b6000610468610a12565b905090565b60065481565b6000600880549050905090565b6007805461048d90611e6f565b80601f01602080910402602001604051908101604052809291908181526020018280546104b990611e6f565b80156105065780601f106104db57610100808354040283529160200191610506565b820191906000526020600020905b8154815290600101906020018083116104e957829003601f168201915b505050505081565b6000610518610a12565b90508073ffffffffffffffffffffffffffffffffffffffff1663a9059cbb338373ffffffffffffffffffffffffffffffffffffffff166370a08231306040518263ffffffff1660e01b8152600401610570919061188c565b60206040518083038186803b15801561058857600080fd5b505afa15801561059c573d6000803e3d6000fd5b505050506040513d601f19601f820116820180604052508101906105c0919061164f565b6040518363ffffffff1660e01b81526004016105dd9291906118a7565b602060405180830381600087803b1580156105f757600080fd5b505af115801561060b573d6000803e3d6000fd5b505050506040513d601f19601f8201168201806040525081019061062f91906114c9565b61066e576040517f08c379a000000000000000000000000000000000000000000000000000000000815260040161066590611a35565b60405180910390fd5b50565b606060005b60208160ff161080156106ee5750600060f81b838260ff16602081106106c5577f4e487b7100000000000000000000000000000000000000000000000000000000600052603260045260246000fd5b1a60f81b7effffffffffffffffffffffffffffffffffffffffffffffffffffffffffffff191614155b156107065780806106fe90611ea1565b915050610676565b60008160ff1667ffffffffffffffff81111561074b577f4e487b7100000000000000000000000000000000000000000000000000000000600052604160045260246000fd5b6040519080825280601f01601f19166020018201604052801561077d5781602001600182028036833780820191505090505b509050600091505b60208260ff161080156107fd5750600060f81b848360ff16602081106107d4577f4e487b7100000000000000000000000000000000000000000000000000000000600052603260045260246000fd5b1a60f81b7effffffffffffffffffffffffffffffffffffffffffffffffffffffffffffff191614155b156108c057838260ff166020811061083e577f4e487b7100000000000000000000000000000000000000000000000000000000600052603260045260246000fd5b1a60f81b818360ff168151811061087e577f4e487b7100000000000000000000000000000000000000000000000000000000600052603260045260246000fd5b60200101907effffffffffffffffffffffffffffffffffffffffffffffffffffffffffffff1916908160001a90535081806108b890611ea1565b925050610785565b8092505050919050565b600881815481106108da57600080fd5b906000526020600020016000915090508060000180546108f990611e6f565b80601f016020809104026020016040519081016040528092919081815260200182805461092590611e6f565b80156109725780601f1061094757610100808354040283529160200191610972565b820191906000526020600020905b81548152906001019060200180831161095557829003601f168201915b5050505050905081565b61098884848484610a3c565b50505050565b610996611354565b61099e611354565b6109b585858584610b4f909392919063ffffffff16565b9150509392505050565b6109d6828460800151610bff90919063ffffffff16565b6109ed818460800151610bff90919063ffffffff16565b505050565b6000610a098484846001634042994660e01b610c24565b90509392505050565b6000600260009054906101000a900473ffffffffffffffffffffffffffffffffffffffff16905090565b60006005600086815260200190815260200160002060009054906101000a900473ffffffffffffffffffffffffffffffffffffffff1690506005600086815260200190815260200160002060006101000a81549073ffffffffffffffffffffffffffffffffffffffff0219169055847fe1fe3afa0f7f761ff0a8b89086790efd5140d2907ebd5b7ff6bfcb5e075fd4c560405160405180910390a28073ffffffffffffffffffffffffffffffffffffffff16636ee4d553868686866040518563ffffffff1660e01b8152600401610b1694939291906119ae565b600060405180830381600087803b158015610b3057600080fd5b505af1158015610b44573d6000803e3d6000fd5b505050505050505050565b610b57611354565b610b678560800151610100610e8c565b508385600001818152505082856020019073ffffffffffffffffffffffffffffffffffffffff16908173ffffffffffffffffffffffffffffffffffffffff16815250508185604001907bffffffffffffffffffffffffffffffffffffffffffffffffffffffff191690817bffffffffffffffffffffffffffffffffffffffffffffffffffffffff191681525050849050949350505050565b610c0c8260038351610ef6565b610c1f818361103b90919063ffffffff16565b505050565b600030600454604051602001610c3b929190611860565b604051602081830303815290604052805190602001209050600454856060018181525050856005600083815260200190815260200160002060006101000a81548173ffffffffffffffffffffffffffffffffffffffff021916908373ffffffffffffffffffffffffffffffffffffffff160217905550807fb5e6e01e79f91267dc17b4e6314d5d4d03593d2ceee0fbb452b750bd70ea5af960405160405180910390a2600082600080886000015189602001518a604001518b606001518a8d6080015160000151604051602401610d199897969594939291906118d0565b604051602081830303815290604052907bffffffffffffffffffffffffffffffffffffffffffffffffffffffff19166020820180517bffffffffffffffffffffffffffffffffffffffffffffffffffffffff83818316178352505050509050600260009054906101000a900473ffffffffffffffffffffffffffffffffffffffff1673ffffffffffffffffffffffffffffffffffffffff16634000aea08887846040518463ffffffff1660e01b8152600401610dd793929190611955565b602060405180830381600087803b158015610df157600080fd5b505af1158015610e05573d6000803e3d6000fd5b505050506040513d601f19601f82011682018060405250810190610e2991906114c9565b610e68576040517f08c379a0000000000000000000000000000000000000000000000000000000008152600401610e5f90611a15565b60405180910390fd5b600160046000828254610e7b9190611b29565b925050819055505095945050505050565b610e946113c1565b6000602083610ea39190611ef9565b14610ecf57602082610eb59190611ef9565b6020610ec19190611d4a565b82610ecc9190611b29565b91505b81836020018181525050604051808452600081528281016020016040525082905092915050565b60178111610f2357610f1d8160058460ff16901b60ff16178461105d90919063ffffffff16565b50611036565b60ff8111610f6557610f48601860058460ff16901b178461105d90919063ffffffff16565b50610f5f8160018561107d9092919063ffffffff16565b50611035565b61ffff8111610fa857610f8b601960058460ff16901b178461105d90919063ffffffff16565b50610fa28160028561107d9092919063ffffffff16565b50611034565b63ffffffff8111610fed57610fd0601a60058460ff16901b178461105d90919063ffffffff16565b50610fe78160048561107d9092919063ffffffff16565b50611033565b67ffffffffffffffff811161103257611019601b60058460ff16901b178461105d90919063ffffffff16565b506110308160088561107d9092919063ffffffff16565b505b5b5b5b5b505050565b6110436113c1565b6110558384600001515184855161109f565b905092915050565b6110656113c1565b61107583846000015151846111a9565b905092915050565b6110856113c1565b611096848560000151518585611200565b90509392505050565b6110a76113c1565b82518211156110b557600080fd5b846020015182856110c69190611b29565b11156110fb576110fa8560026110eb886020015188876110e69190611b29565b61128e565b6110f59190611cf0565b6112aa565b5b60008086518051876020830101935080888701111561111a5787860182525b60208701925050505b60208410611161578051825260208261113c9190611b29565b915060208161114b9190611b29565b905060208461115a9190611d4a565b9350611123565b600060018560206111729190611d4a565b61010061117f9190611bd2565b6111899190611d4a565b905080198251168184511681811785525050879350505050949350505050565b6111b16113c1565b836020015183106111d7576111d684600286602001516111d19190611cf0565b6112aa565b5b83518051602085830101848153818614156111f3576001820183525b5050508390509392505050565b6112086113c1565b846020015184836112199190611b29565b11156112415761124085600286856112319190611b29565b61123b9190611cf0565b6112aa565b5b60006001836101006112539190611bd2565b61125d9190611d4a565b905085518386820101858319825116178152815185880111156112805784870182525b505085915050949350505050565b6000818311156112a0578290506112a4565b8190505b92915050565b6000826000015190506112bd8383610e8c565b506112c8838261103b565b50505050565b8280546112da90611e6f565b90600052602060002090601f0160209004810192826112fc5760008555611343565b82601f1061131557805160ff1916838001178555611343565b82800160010185558215611343579182015b82811115611342578251825591602001919060010190611327565b5b50905061135091906113db565b5090565b6040518060a0016040528060008019168152602001600073ffffffffffffffffffffffffffffffffffffffff16815260200160007bffffffffffffffffffffffffffffffffffffffffffffffffffffffff19168152602001600081526020016113bb6113c1565b81525090565b604051806040016040528060608152602001600081525090565b5b808211156113f45760008160009055506001016113dc565b5090565b600061140b61140684611ac1565b611a90565b90508281526020810184848401111561142357600080fd5b61142e848285611e2d565b509392505050565b60008151905061144581612011565b92915050565b60008135905061145a81612028565b92915050565b60008135905061146f8161203f565b92915050565b600082601f83011261148657600080fd5b81356114968482602086016113f8565b91505092915050565b6000813590506114ae81612056565b92915050565b6000815190506114c381612056565b92915050565b6000602082840312156114db57600080fd5b60006114e984828501611436565b91505092915050565b60006020828403121561150457600080fd5b60006115128482850161144b565b91505092915050565b6000806040838503121561152e57600080fd5b600061153c8582860161144b565b925050602061154d8582860161144b565b9150509250929050565b6000806000806080858703121561156d57600080fd5b600061157b8782880161144b565b945050602061158c8782880161149f565b935050604061159d87828801611460565b92505060606115ae8782880161149f565b91505092959194509250565b600080604083850312156115cd57600080fd5b600083013567ffffffffffffffff8111156115e757600080fd5b6115f385828601611475565b925050602083013567ffffffffffffffff81111561161057600080fd5b61161c85828601611475565b9150509250929050565b60006020828403121561163857600080fd5b60006116468482850161149f565b91505092915050565b60006020828403121561166157600080fd5b600061166f848285016114b4565b91505092915050565b61168181611d7e565b82525050565b61169081611d9c565b82525050565b61169f81611da6565b82525050565b60006116b082611af1565b6116ba8185611b07565b93506116ca818560208601611e3c565b6116d381611fe6565b840191505092915050565b6116ef6116ea82611e09565b611ecb565b82525050565b600061170082611afc565b61170a8185611b18565b935061171a818560208601611e3c565b61172381611fe6565b840191505092915050565b600061173b602383611b18565b91507f756e61626c6520746f207472616e73666572416e6443616c6c20746f206f726160008301527f636c6500000000000000000000000000000000000000000000000000000000006020830152604082019050919050565b60006117a1601283611b18565b91507f556e61626c6520746f207472616e7366657200000000000000000000000000006000830152602082019050919050565b60006117e1602883611b18565b91507f536f75726365206d75737420626520746865206f7261636c65206f662074686560008301527f20726571756573740000000000000000000000000000000000000000000000006020830152604082019050919050565b61184381611df2565b82525050565b61185a61185582611df2565b611eef565b82525050565b600061186c82856116de565b60148201915061187c8284611849565b6020820191508190509392505050565b60006020820190506118a16000830184611678565b92915050565b60006040820190506118bc6000830185611678565b6118c9602083018461183a565b9392505050565b6000610100820190506118e6600083018b611678565b6118f3602083018a61183a565b6119006040830189611687565b61190d6060830188611678565b61191a6080830187611696565b61192760a083018661183a565b61193460c083018561183a565b81810360e083015261194681846116a5565b90509998505050505050505050565b600060608201905061196a6000830186611678565b611977602083018561183a565b818103604083015261198981846116a5565b9050949350505050565b60006020820190506119a86000830184611687565b92915050565b60006080820190506119c36000830187611687565b6119d0602083018661183a565b6119dd6040830185611696565b6119ea606083018461183a565b95945050505050565b60006020820190508181036000830152611a0d81846116f5565b905092915050565b60006020820190508181036000830152611a2e8161172e565b9050919050565b60006020820190508181036000830152611a4e81611794565b9050919050565b60006020820190508181036000830152611a6e816117d4565b9050919050565b6000602082019050611a8a600083018461183a565b92915050565b6000604051905081810181811067ffffffffffffffff82111715611ab757611ab6611fb7565b5b8060405250919050565b600067ffffffffffffffff821115611adc57611adb611fb7565b5b601f19601f8301169050602081019050919050565b600081519050919050565b600081519050919050565b600082825260208201905092915050565b600082825260208201905092915050565b6000611b3482611df2565b9150611b3f83611df2565b9250827fffffffffffffffffffffffffffffffffffffffffffffffffffffffffffffffff03821115611b7457611b73611f2a565b5b828201905092915050565b6000808291508390505b6001851115611bc957808604811115611ba557611ba4611f2a565b5b6001851615611bb45780820291505b8081029050611bc285612004565b9450611b89565b94509492505050565b6000611bdd82611df2565b9150611be883611df2565b9250611c157fffffffffffffffffffffffffffffffffffffffffffffffffffffffffffffffff8484611c1d565b905092915050565b600082611c2d5760019050611ce9565b81611c3b5760009050611ce9565b8160018114611c515760028114611c5b57611c8a565b6001915050611ce9565b60ff841115611c6d57611c6c611f2a565b5b8360020a915084821115611c8457611c83611f2a565b5b50611ce9565b5060208310610133831016604e8410600b8410161715611cbf5782820a905083811115611cba57611cb9611f2a565b5b611ce9565b611ccc8484846001611b7f565b92509050818404811115611ce357611ce2611f2a565b5b81810290505b9392505050565b6000611cfb82611df2565b9150611d0683611df2565b9250817fffffffffffffffffffffffffffffffffffffffffffffffffffffffffffffffff0483118215151615611d3f57611d3e611f2a565b5b828202905092915050565b6000611d5582611df2565b9150611d6083611df2565b925082821015611d7357611d72611f2a565b5b828203905092915050565b6000611d8982611dd2565b9050919050565b60008115159050919050565b6000819050919050565b60007fffffffff0000000000000000000000000000000000000000000000000000000082169050919050565b600073ffffffffffffffffffffffffffffffffffffffff82169050919050565b6000819050919050565b600060ff82169050919050565b6000611e1482611e1b565b9050919050565b6000611e2682611dd2565b9050919050565b82818337600083830152505050565b60005b83811015611e5a578082015181840152602081019050611e3f565b83811115611e69576000848401525b50505050565b60006002820490506001821680611e8757607f821691505b60208210811415611e9b57611e9a611f88565b5b50919050565b6000611eac82611dfc565b915060ff821415611ec057611ebf611f2a565b5b600182019050919050565b6000611ed682611edd565b9050919050565b6000611ee882611ff7565b9050919050565b6000819050919050565b6000611f0482611df2565b9150611f0f83611df2565b925082611f1f57611f1e611f59565b5b828206905092915050565b7f4e487b7100000000000000000000000000000000000000000000000000000000600052601160045260246000fd5b7f4e487b7100000000000000000000000000000000000000000000000000000000600052601260045260246000fd5b7f4e487b7100000000000000000000000000000000000000000000000000000000600052602260045260246000fd5b7f4e487b7100000000000000000000000000000000000000000000000000000000600052604160045260246000fd5b6000601f19601f8301169050919050565b60008160601b9050919050565b60008160011c9050919050565b61201a81611d90565b811461202557600080fd5b50565b61203181611d9c565b811461203c57600080fd5b50565b61204881611da6565b811461205357600080fd5b50565b61205f81611df2565b811461206a57600080fd5b5056fea2646970667358221220eb71f12cdde6d8b52823390235e172e372a6f5ae8d67f18d758c32bb7b4e786064736f6c63430008000033",
  "immutableReferences": {},
  "source": "// SPDX-License-Identifier: MIT\npragma solidity ^0.8.0;\n\nimport \"@chainlink/contracts/src/v0.8/ChainlinkClient.sol\";\n\n/**\n * @title MyContract is an example contract which requests data from\n * the Chainlink network\n * @dev This contract is designed to work on multiple networks, including\n * local test networks\n */\ncontract MyContract is ChainlinkClient {\n  using Chainlink for Chainlink.Request;\n\n  address constant ORACLE = 0xF405B99ACa8578B9eb989ee2b69D518aaDb90c1F;\n  bytes32 constant JOB_ID = bytes32(\"7c4b968028f74b2eabd7d428f03ba45c\");\n  uint256 constant FEE = 0.1 * 10 ** 18;\n\n  // bytes32 public data;\n\n  bytes32 public data;\n  string public image_url;\n\n  struct Clip {\n      string c;\n  }\n\n  Clip[] public clips;\n\n\n  /**\n   * @notice Deploy the contract with a specified address for the LINK\n   * and Oracle contract addresses\n   * @dev Sets the storage for the specified addresses\n   * @param _link The address of the LINK token contract\n   */\n  constructor(address _link) public {\n    if (_link == address(0)) {\n      setPublicChainlinkToken();\n    } else {\n      setChainlinkToken(_link);\n    }\n    setChainlinkOracle(0xF405B99ACa8578B9eb989ee2b69D518aaDb90c1F);\n\n  }\n\n  /**\n   * @notice Returns the address of the LINK token\n   * @dev This is the public implementation for chainlinkTokenAddress, which is\n   * an internal method of the ChainlinkClient contract\n   */\n  function getChainlinkToken() public view returns (address) {\n    return chainlinkTokenAddress();\n  }\n\n  /**\n   * @notice Creates a request to the specified Oracle contract address\n   * @dev This function ignores the stored Oracle contract address and\n   * will instead send the request to the address specified\n   * @param _url The URL to fetch data from\n   * @param _path The dot-delimited path to parse of the response\n   */\n  function createRequestTo(\n    string memory _url,\n    string memory _path\n    // int256 _times\n  )\n    public\n    returns (bytes32 requestId) \n  {\n    // bytes32 specId = \"7c4b968028f74b2eabd7d428f03ba45c\";\n\n    Chainlink.Request memory req = buildChainlinkRequest(JOB_ID, address(this), this.fulfill.selector);\n    req.add(\"get\", _url);\n    req.add(\"path\", _path);\n    // requestOracleData(req, FEE);\n    requestId = sendChainlinkRequestTo(ORACLE, req, FEE);\n  }\n\n  // event RequestFulfilled(bytes32 indexed requestId, bytes indexed data);\n\n  /**\n   * @notice The fulfill method from requests created by this contract\n   * @dev The recordChainlinkFulfillment protects this function from being called\n   * by anyone other than the oracle address that the request was sent to\n   * @param _requestId The ID that was generated for the request\n   * @param _data The answer provided by the oracle\n   */\n  function fulfill(bytes32 _requestId, bytes32 _data)\n    public\n    recordChainlinkFulfillment(_requestId)\n  {\n    // emit RequestFulfilled(requestId, bytesData);\n    data = _data;\n    // image_url = string(data);\n\n    string memory c = bytes32ToString(data);\n\n    clips.push(\n        Clip(\n            c\n        )\n    );\n  }\n\n  function getNumberOfClips() public view returns (uint256) {\n    return clips.length;\n  }\n\n  /**\n   * @notice Allows the owner to withdraw any LINK balance on the contract\n   */\n  function withdrawLink() public {\n    LinkTokenInterface link = LinkTokenInterface(chainlinkTokenAddress());\n    require(link.transfer(msg.sender, link.balanceOf(address(this))), \"Unable to transfer\");\n  }\n\n  /**\n   * @notice Call this method if no response is received within 5 minutes\n   * @param _requestId The ID that was generated for the request to cancel\n   * @param _payment The payment specified for the request to cancel\n   * @param _callbackFunctionId The bytes4 callback function ID specified for\n   * the request to cancel\n   * @param _expiration The expiration generated for the request to cancel\n   */\n  function cancelRequest(\n    bytes32 _requestId,\n    uint256 _payment,\n    bytes4 _callbackFunctionId,\n    uint256 _expiration\n  )\n    public\n  {\n    cancelChainlinkRequest(_requestId, _payment, _callbackFunctionId, _expiration);\n  }\n\n  function bytes32ToString(bytes32 _bytes32) public pure returns (string memory) {\n      uint8 i = 0;\n      while(i < 32 && _bytes32[i] != 0) {\n          i++;\n      }\n      bytes memory bytesArray = new bytes(i);\n      for (i = 0; i < 32 && _bytes32[i] != 0; i++) {\n          bytesArray[i] = _bytes32[i];\n      }\n      return string(bytesArray);\n  }\n}\n",
  "sourcePath": "/Users/oliverjaros/Develop/chainlink-api-test/contracts/MyContract.sol",
  "compiler": {
    "name": "solc",
    "version": "0.8.0+commit.c7dfd78e.Emscripten.clang"
  },
  "schemaVersion": "3.4.3",
  "updatedAt": "2021-09-08T03:50:43.830Z",
  "networkType": "ethereum",
  "devdoc": {
    "details": "This contract is designed to work on multiple networks, including local test networks",
    "kind": "dev",
    "methods": {
      "cancelRequest(bytes32,uint256,bytes4,uint256)": {
        "params": {
          "_callbackFunctionId": "The bytes4 callback function ID specified for the request to cancel",
          "_expiration": "The expiration generated for the request to cancel",
          "_payment": "The payment specified for the request to cancel",
          "_requestId": "The ID that was generated for the request to cancel"
        }
      },
      "constructor": {
        "details": "Sets the storage for the specified addresses",
        "params": {
          "_link": "The address of the LINK token contract"
        }
      },
      "createRequestTo(string,string)": {
        "details": "This function ignores the stored Oracle contract address and will instead send the request to the address specified",
        "params": {
          "_path": "The dot-delimited path to parse of the response",
          "_url": "The URL to fetch data from"
        }
      },
      "fulfill(bytes32,bytes32)": {
        "details": "The recordChainlinkFulfillment protects this function from being called by anyone other than the oracle address that the request was sent to",
        "params": {
          "_data": "The answer provided by the oracle",
          "_requestId": "The ID that was generated for the request"
        }
      },
      "getChainlinkToken()": {
        "details": "This is the public implementation for chainlinkTokenAddress, which is an internal method of the ChainlinkClient contract"
      }
    },
    "title": "MyContract is an example contract which requests data from the Chainlink network",
    "version": 1
  },
  "userdoc": {
    "kind": "user",
    "methods": {
      "cancelRequest(bytes32,uint256,bytes4,uint256)": {
        "notice": "Call this method if no response is received within 5 minutes"
      },
      "constructor": {
        "notice": "Deploy the contract with a specified address for the LINK and Oracle contract addresses"
      },
      "createRequestTo(string,string)": {
        "notice": "Creates a request to the specified Oracle contract address"
      },
      "fulfill(bytes32,bytes32)": {
        "notice": "The fulfill method from requests created by this contract"
      },
      "getChainlinkToken()": {
        "notice": "Returns the address of the LINK token"
      },
      "withdrawLink()": {
        "notice": "Allows the owner to withdraw any LINK balance on the contract"
      }
    },
    "version": 1
  }
}