{
  "contractName": "MyContract",
  "abi": [
    {
      "inputs": [
        {
          "internalType": "address",
          "name": "_link",
          "type": "address"
        }
      ],
      "stateMutability": "nonpayable",
      "type": "constructor"
    },
    {
      "anonymous": false,
      "inputs": [
        {
          "indexed": true,
          "internalType": "address",
          "name": "owner",
          "type": "address"
        },
        {
          "indexed": true,
          "internalType": "address",
          "name": "approved",
          "type": "address"
        },
        {
          "indexed": true,
          "internalType": "uint256",
          "name": "tokenId",
          "type": "uint256"
        }
      ],
      "name": "Approval",
      "type": "event"
    },
    {
      "anonymous": false,
      "inputs": [
        {
          "indexed": true,
          "internalType": "address",
          "name": "owner",
          "type": "address"
        },
        {
          "indexed": true,
          "internalType": "address",
          "name": "operator",
          "type": "address"
        },
        {
          "indexed": false,
          "internalType": "bool",
          "name": "approved",
          "type": "bool"
        }
      ],
      "name": "ApprovalForAll",
      "type": "event"
    },
    {
      "anonymous": false,
      "inputs": [
        {
          "indexed": true,
          "internalType": "bytes32",
          "name": "id",
          "type": "bytes32"
        }
      ],
      "name": "ChainlinkCancelled",
      "type": "event"
    },
    {
      "anonymous": false,
      "inputs": [
        {
          "indexed": true,
          "internalType": "bytes32",
          "name": "id",
          "type": "bytes32"
        }
      ],
      "name": "ChainlinkFulfilled",
      "type": "event"
    },
    {
      "anonymous": false,
      "inputs": [
        {
          "indexed": true,
          "internalType": "bytes32",
          "name": "id",
          "type": "bytes32"
        }
      ],
      "name": "ChainlinkRequested",
      "type": "event"
    },
    {
      "anonymous": false,
      "inputs": [
        {
          "indexed": true,
          "internalType": "address",
          "name": "from",
          "type": "address"
        },
        {
          "indexed": true,
          "internalType": "address",
          "name": "to",
          "type": "address"
        },
        {
          "indexed": true,
          "internalType": "uint256",
          "name": "tokenId",
          "type": "uint256"
        }
      ],
      "name": "Transfer",
      "type": "event"
    },
    {
      "anonymous": false,
      "inputs": [
        {
          "indexed": true,
          "internalType": "bytes32",
          "name": "requestId",
          "type": "bytes32"
        }
      ],
      "name": "requestedCollectible",
      "type": "event"
    },
    {
      "inputs": [
        {
          "internalType": "address",
          "name": "to",
          "type": "address"
        },
        {
          "internalType": "uint256",
          "name": "tokenId",
          "type": "uint256"
        }
      ],
      "name": "approve",
      "outputs": [],
      "stateMutability": "nonpayable",
      "type": "function"
    },
    {
      "inputs": [
        {
          "internalType": "address",
          "name": "owner",
          "type": "address"
        }
      ],
      "name": "balanceOf",
      "outputs": [
        {
          "internalType": "uint256",
          "name": "",
          "type": "uint256"
        }
      ],
      "stateMutability": "view",
      "type": "function"
    },
    {
      "inputs": [
        {
          "internalType": "uint256",
          "name": "",
          "type": "uint256"
        }
      ],
      "name": "clips",
      "outputs": [
        {
          "internalType": "string",
          "name": "name",
          "type": "string"
        },
        {
          "internalType": "string",
          "name": "url",
          "type": "string"
        }
      ],
      "stateMutability": "view",
      "type": "function"
    },
    {
      "inputs": [],
      "name": "data",
      "outputs": [
        {
          "internalType": "bytes32",
          "name": "",
          "type": "bytes32"
        }
      ],
      "stateMutability": "view",
      "type": "function"
    },
    {
      "inputs": [],
      "name": "fee",
      "outputs": [
        {
          "internalType": "uint256",
          "name": "",
          "type": "uint256"
        }
      ],
      "stateMutability": "view",
      "type": "function"
    },
    {
      "inputs": [
        {
          "internalType": "uint256",
          "name": "tokenId",
          "type": "uint256"
        }
      ],
      "name": "getApproved",
      "outputs": [
        {
          "internalType": "address",
          "name": "",
          "type": "address"
        }
      ],
      "stateMutability": "view",
      "type": "function"
    },
    {
      "inputs": [],
      "name": "image_url",
      "outputs": [
        {
          "internalType": "string",
          "name": "",
          "type": "string"
        }
      ],
      "stateMutability": "view",
      "type": "function"
    },
    {
      "inputs": [
        {
          "internalType": "address",
          "name": "owner",
          "type": "address"
        },
        {
          "internalType": "address",
          "name": "operator",
          "type": "address"
        }
      ],
      "name": "isApprovedForAll",
      "outputs": [
        {
          "internalType": "bool",
          "name": "",
          "type": "bool"
        }
      ],
      "stateMutability": "view",
      "type": "function"
    },
    {
      "inputs": [],
      "name": "name",
      "outputs": [
        {
          "internalType": "string",
          "name": "",
          "type": "string"
        }
      ],
      "stateMutability": "view",
      "type": "function"
    },
    {
      "inputs": [
        {
          "internalType": "uint256",
          "name": "tokenId",
          "type": "uint256"
        }
      ],
      "name": "ownerOf",
      "outputs": [
        {
          "internalType": "address",
          "name": "",
          "type": "address"
        }
      ],
      "stateMutability": "view",
      "type": "function"
    },
    {
      "inputs": [
        {
          "internalType": "bytes32",
          "name": "",
          "type": "bytes32"
        }
      ],
      "name": "requestIdToSender",
      "outputs": [
        {
          "internalType": "address",
          "name": "",
          "type": "address"
        }
      ],
      "stateMutability": "view",
      "type": "function"
    },
    {
      "inputs": [
        {
          "internalType": "bytes32",
          "name": "",
          "type": "bytes32"
        }
      ],
      "name": "requestIdToTokenURI",
      "outputs": [
        {
          "internalType": "string",
          "name": "",
          "type": "string"
        }
      ],
      "stateMutability": "view",
      "type": "function"
    },
    {
      "inputs": [
        {
          "internalType": "bytes32",
          "name": "",
          "type": "bytes32"
        }
      ],
      "name": "requestToClipName",
      "outputs": [
        {
          "internalType": "string",
          "name": "",
          "type": "string"
        }
      ],
      "stateMutability": "view",
      "type": "function"
    },
    {
      "inputs": [
        {
          "internalType": "address",
          "name": "from",
          "type": "address"
        },
        {
          "internalType": "address",
          "name": "to",
          "type": "address"
        },
        {
          "internalType": "uint256",
          "name": "tokenId",
          "type": "uint256"
        }
      ],
      "name": "safeTransferFrom",
      "outputs": [],
      "stateMutability": "nonpayable",
      "type": "function"
    },
    {
      "inputs": [
        {
          "internalType": "address",
          "name": "from",
          "type": "address"
        },
        {
          "internalType": "address",
          "name": "to",
          "type": "address"
        },
        {
          "internalType": "uint256",
          "name": "tokenId",
          "type": "uint256"
        },
        {
          "internalType": "bytes",
          "name": "_data",
          "type": "bytes"
        }
      ],
      "name": "safeTransferFrom",
      "outputs": [],
      "stateMutability": "nonpayable",
      "type": "function"
    },
    {
      "inputs": [
        {
          "internalType": "address",
          "name": "operator",
          "type": "address"
        },
        {
          "internalType": "bool",
          "name": "approved",
          "type": "bool"
        }
      ],
      "name": "setApprovalForAll",
      "outputs": [],
      "stateMutability": "nonpayable",
      "type": "function"
    },
    {
      "inputs": [
        {
          "internalType": "bytes4",
          "name": "interfaceId",
          "type": "bytes4"
        }
      ],
      "name": "supportsInterface",
      "outputs": [
        {
          "internalType": "bool",
          "name": "",
          "type": "bool"
        }
      ],
      "stateMutability": "view",
      "type": "function"
    },
    {
      "inputs": [],
      "name": "symbol",
      "outputs": [
        {
          "internalType": "string",
          "name": "",
          "type": "string"
        }
      ],
      "stateMutability": "view",
      "type": "function"
    },
    {
      "inputs": [],
      "name": "tokenCounter",
      "outputs": [
        {
          "internalType": "uint256",
          "name": "",
          "type": "uint256"
        }
      ],
      "stateMutability": "view",
      "type": "function"
    },
    {
      "inputs": [
        {
          "internalType": "uint256",
          "name": "tokenId",
          "type": "uint256"
        }
      ],
      "name": "tokenURI",
      "outputs": [
        {
          "internalType": "string",
          "name": "",
          "type": "string"
        }
      ],
      "stateMutability": "view",
      "type": "function"
    },
    {
      "inputs": [
        {
          "internalType": "address",
          "name": "from",
          "type": "address"
        },
        {
          "internalType": "address",
          "name": "to",
          "type": "address"
        },
        {
          "internalType": "uint256",
          "name": "tokenId",
          "type": "uint256"
        }
      ],
      "name": "transferFrom",
      "outputs": [],
      "stateMutability": "nonpayable",
      "type": "function"
    },
    {
      "inputs": [
        {
          "internalType": "string",
          "name": "tokenURI",
          "type": "string"
        }
      ],
      "name": "createCollectible",
      "outputs": [
        {
          "internalType": "bytes32",
          "name": "",
          "type": "bytes32"
        }
      ],
      "stateMutability": "nonpayable",
      "type": "function"
    },
    {
      "inputs": [],
      "name": "getChainlinkToken",
      "outputs": [
        {
          "internalType": "address",
          "name": "",
          "type": "address"
        }
      ],
      "stateMutability": "view",
      "type": "function"
    },
    {
      "inputs": [
        {
          "internalType": "string",
          "name": "_url",
          "type": "string"
        },
        {
          "internalType": "string",
          "name": "_path",
          "type": "string"
        },
        {
          "internalType": "string",
          "name": "tokenURI",
          "type": "string"
        }
      ],
      "name": "createRequestTo",
      "outputs": [
        {
          "internalType": "bytes32",
          "name": "requestId",
          "type": "bytes32"
        }
      ],
      "stateMutability": "nonpayable",
      "type": "function"
    },
    {
      "inputs": [
        {
          "internalType": "bytes32",
          "name": "_requestId",
          "type": "bytes32"
        },
        {
          "internalType": "bytes32",
          "name": "_data",
          "type": "bytes32"
        }
      ],
      "name": "fulfill",
      "outputs": [],
      "stateMutability": "nonpayable",
      "type": "function"
    },
    {
      "inputs": [],
      "name": "getNumberOfClips",
      "outputs": [
        {
          "internalType": "uint256",
          "name": "",
          "type": "uint256"
        }
      ],
      "stateMutability": "view",
      "type": "function"
    },
    {
      "inputs": [],
      "name": "withdrawLink",
      "outputs": [],
      "stateMutability": "nonpayable",
      "type": "function"
    },
    {
      "inputs": [
        {
          "internalType": "bytes32",
          "name": "_requestId",
          "type": "bytes32"
        },
        {
          "internalType": "uint256",
          "name": "_payment",
          "type": "uint256"
        },
        {
          "internalType": "bytes4",
          "name": "_callbackFunctionId",
          "type": "bytes4"
        },
        {
          "internalType": "uint256",
          "name": "_expiration",
          "type": "uint256"
        }
      ],
      "name": "cancelRequest",
      "outputs": [],
      "stateMutability": "nonpayable",
      "type": "function"
    },
    {
      "inputs": [
        {
          "internalType": "bytes32",
          "name": "_bytes32",
          "type": "bytes32"
        }
      ],
      "name": "bytes32ToString",
      "outputs": [
        {
          "internalType": "string",
          "name": "",
          "type": "string"
        }
      ],
      "stateMutability": "pure",
      "type": "function"
    }
  ],
  "bytecode": "0x608060405260016004553480156200001657600080fd5b5060405162004d3a38038062004d3a83398181016040528101906200003c919062000365565b6040518060400160405280600581526020017f54657374730000000000000000000000000000000000000000000000000000008152506040518060400160405280600381526020017f54535400000000000000000000000000000000000000000000000000000000008152508160069080519060200190620000c09291906200029e565b508060079080519060200190620000d99291906200029e565b505050600073ffffffffffffffffffffffffffffffffffffffff168173ffffffffffffffffffffffffffffffffffffffff1614156200012857620001226200016e60201b60201c565b6200013a565b62000139816200021660201b60201c565b5b6200015f73f405b99aca8578b9eb989ee2b69d518aadb90c1f6200025a60201b60201c565b6000600e819055505062000444565b6200021473c89bd4e1632d3a43cb03aaad5262cbe4038bc57173ffffffffffffffffffffffffffffffffffffffff166338cc48316040518163ffffffff1660e01b815260040160206040518083038186803b158015620001cd57600080fd5b505afa158015620001e2573d6000803e3d6000fd5b505050506040513d601f19601f8201168201806040525081019062000208919062000365565b6200021660201b60201c565b565b80600260006101000a81548173ffffffffffffffffffffffffffffffffffffffff021916908373ffffffffffffffffffffffffffffffffffffffff16021790555050565b80600360006101000a81548173ffffffffffffffffffffffffffffffffffffffff021916908373ffffffffffffffffffffffffffffffffffffffff16021790555050565b828054620002ac90620003c5565b90600052602060002090601f016020900481019282620002d057600085556200031c565b82601f10620002eb57805160ff19168380011785556200031c565b828001600101855582156200031c579182015b828111156200031b578251825591602001919060010190620002fe565b5b5090506200032b91906200032f565b5090565b5b808211156200034a57600081600090555060010162000330565b5090565b6000815190506200035f816200042a565b92915050565b6000602082840312156200037857600080fd5b600062000388848285016200034e565b91505092915050565b60006200039e82620003a5565b9050919050565b600073ffffffffffffffffffffffffffffffffffffffff82169050919050565b60006002820490506001821680620003de57607f821691505b60208210811415620003f557620003f4620003fb565b5b50919050565b7f4e487b7100000000000000000000000000000000000000000000000000000000600052602260045260246000fd5b620004358162000391565b81146200044157600080fd5b50565b6148e680620004546000396000f3fe608060405234801561001057600080fd5b50600436106101cf5760003560e01c806370a0823111610104578063a22cb465116100a2578063d082e38111610071578063d082e3811461057b578063ddca3f4314610599578063e985e9c5146105b7578063ec65d0f8146105e7576101cf565b8063a22cb465146104e2578063b88d4fde146104fe578063c54a44a71461051a578063c87b56dd1461054b576101cf565b8063824f4baf116100de578063824f4baf1461046c5780638dc654a21461048a5780639201de551461049457806395d89b41146104c4576101cf565b806370a082311461040057806373d4a13a14610430578063761fc5251461044e576101cf565b806323b872dd116101715780634372441a1161014b5780634372441a146103405780634bd2772b146103705780636352211e146103a05780636ff168e6146103d0576101cf565b806323b872dd146102d857806331f1f3c3146102f457806342842e0e14610324576101cf565b8063081812fc116101ad578063081812fc1461023e578063095ea7b31461026e578063165d35e11461028a578063219c0eee146102a8576101cf565b806301ffc9a7146101d4578063042f2b651461020457806306fdde0314610220575b600080fd5b6101ee60048036038101906101e9919061348f565b610603565b6040516101fb9190613ef8565b60405180910390f35b61021e600480360381019061021991906133f0565b6106e5565b005b610228610aa7565b6040516102359190613f73565b60405180910390f35b610258600480360381019061025391906135b9565b610b39565b6040516102659190613da5565b60405180910390f35b61028860048036038101906102839190613362565b610bbe565b005b610292610cd6565b60405161029f9190613da5565b60405180910390f35b6102c260048036038101906102bd91906133c7565b610ce5565b6040516102cf9190613da5565b60405180910390f35b6102f260048036038101906102ed919061325c565b610d18565b005b61030e600480360381019061030991906134e1565b610d78565b60405161031b9190613f13565b60405180910390f35b61033e6004803603810190610339919061325c565b610d7f565b005b61035a600480360381019061035591906133c7565b610d9f565b6040516103679190613f73565b60405180910390f35b61038a60048036038101906103859190613522565b610e3f565b6040516103979190613f13565b60405180910390f35b6103ba60048036038101906103b591906135b9565b610fb5565b6040516103c79190613da5565b60405180910390f35b6103ea60048036038101906103e591906133c7565b611067565b6040516103f79190613f73565b60405180910390f35b61041a600480360381019061041591906131f7565b611107565b60405161042791906141ec565b60405180910390f35b6104386111bf565b6040516104459190613f13565b60405180910390f35b6104566111c5565b60405161046391906141ec565b60405180910390f35b6104746111d2565b6040516104819190613f73565b60405180910390f35b610492611260565b005b6104ae60048036038101906104a991906133c7565b6113c3565b6040516104bb9190613f73565b60405180910390f35b6104cc61161c565b6040516104d99190613f73565b60405180910390f35b6104fc60048036038101906104f79190613326565b6116ae565b005b610518600480360381019061051391906132ab565b61182f565b005b610534600480360381019061052f91906135b9565b611891565b604051610542929190613f95565b60405180910390f35b610565600480360381019061056091906135b9565b6119d5565b6040516105729190613f73565b60405180910390f35b610583611a7c565b60405161059091906141ec565b60405180910390f35b6105a1611a82565b6040516105ae91906141ec565b60405180910390f35b6105d160048036038101906105cc9190613220565b611a88565b6040516105de9190613ef8565b60405180910390f35b61060160048036038101906105fc919061342c565b611b1c565b005b60007f80ac58cd000000000000000000000000000000000000000000000000000000007bffffffffffffffffffffffffffffffffffffffffffffffffffffffff1916827bffffffffffffffffffffffffffffffffffffffffffffffffffffffff191614806106ce57507f5b5e139f000000000000000000000000000000000000000000000000000000007bffffffffffffffffffffffffffffffffffffffffffffffffffffffff1916827bffffffffffffffffffffffffffffffffffffffffffffffffffffffff1916145b806106de57506106dd82611b2e565b5b9050919050565b816005600082815260200190815260200160002060009054906101000a900473ffffffffffffffffffffffffffffffffffffffff1673ffffffffffffffffffffffffffffffffffffffff163373ffffffffffffffffffffffffffffffffffffffff1614610787576040517f08c379a000000000000000000000000000000000000000000000000000000000815260040161077e906141cc565b60405180910390fd5b6005600082815260200190815260200160002060006101000a81549073ffffffffffffffffffffffffffffffffffffffff0219169055807f7cc135e0cebb02c3480ae5d74d377283180a2601f8f644edf7987b009316c63a60405160405180910390a260006013600085815260200190815260200160002060009054906101000a900473ffffffffffffffffffffffffffffffffffffffff16905060006011805490509050600060146000878152602001908152602001600020805461084c90614652565b80601f016020809104026020016040519081016040528092919081815260200182805461087890614652565b80156108c55780601f1061089a576101008083540402835291602001916108c5565b820191906000526020600020905b8154815290600101906020018083116108a857829003601f168201915b5050505050905084600f819055506108de600f546113c3565b601090805190602001906108f3929190612f55565b5060116040518060400160405280601460008a8152602001908152602001600020805461091f90614652565b80601f016020809104026020016040519081016040528092919081815260200182805461094b90614652565b80156109985780601f1061096d57610100808354040283529160200191610998565b820191906000526020600020905b81548152906001019060200180831161097b57829003601f168201915b50505050508152602001601080546109af90614652565b80601f01602080910402602001604051908101604052809291908181526020018280546109db90614652565b8015610a285780601f106109fd57610100808354040283529160200191610a28565b820191906000526020600020905b815481529060010190602001808311610a0b57829003601f168201915b505050505081525090806001815401808255809150506001900390600052602060002090600202016000909190919091506000820151816000019080519060200190610a75929190612f55565b506020820151816001019080519060200190610a92929190612f55565b505050610a9f8383611b98565b505050505050565b606060068054610ab690614652565b80601f0160208091040260200160405190810160405280929190818152602001828054610ae290614652565b8015610b2f5780601f10610b0457610100808354040283529160200191610b2f565b820191906000526020600020905b815481529060010190602001808311610b1257829003601f168201915b5050505050905090565b6000610b4482611bb6565b610b83576040517f08c379a0000000000000000000000000000000000000000000000000000000008152600401610b7a9061412c565b60405180910390fd5b600a600083815260200190815260200160002060009054906101000a900473ffffffffffffffffffffffffffffffffffffffff169050919050565b6000610bc982610fb5565b90508073ffffffffffffffffffffffffffffffffffffffff168373ffffffffffffffffffffffffffffffffffffffff161415610c3a576040517f08c379a0000000000000000000000000000000000000000000000000000000008152600401610c319061418c565b60405180910390fd5b8073ffffffffffffffffffffffffffffffffffffffff16610c59611c22565b73ffffffffffffffffffffffffffffffffffffffff161480610c885750610c8781610c82611c22565b611a88565b5b610cc7576040517f08c379a0000000000000000000000000000000000000000000000000000000008152600401610cbe9061408c565b60405180910390fd5b610cd18383611c2a565b505050565b6000610ce0611ce3565b905090565b60136020528060005260406000206000915054906101000a900473ffffffffffffffffffffffffffffffffffffffff1681565b610d29610d23611c22565b82611d0d565b610d68576040517f08c379a0000000000000000000000000000000000000000000000000000000008152600401610d5f906141ac565b60405180910390fd5b610d73838383611deb565b505050565b6000919050565b610d9a8383836040518060200160405280600081525061182f565b505050565b60146020528060005260406000206000915090508054610dbe90614652565b80601f0160208091040260200160405190810160405280929190818152602001828054610dea90614652565b8015610e375780601f10610e0c57610100808354040283529160200191610e37565b820191906000526020600020905b815481529060010190602001808311610e1a57829003601f168201915b505050505081565b600080610e747f37633462393638303238663734623265616264376434323866303362613435633063042f2b6560e01b612047565b9050610ec06040518060400160405280600381526020017f676574000000000000000000000000000000000000000000000000000000000081525086836120789092919063ffffffff16565b610f0a6040518060400160405280600481526020017f706174680000000000000000000000000000000000000000000000000000000081525085836120789092919063ffffffff16565b610f3173f405b99aca8578b9eb989ee2b69d518aadb90c1f8267016345785d8a00006120ab565b915082601460008481526020019081526020016000209080519060200190610f5a929190612f55565b50336013600084815260200190815260200160002060006101000a81548173ffffffffffffffffffffffffffffffffffffffff021916908373ffffffffffffffffffffffffffffffffffffffff160217905550509392505050565b6000806008600084815260200190815260200160002060009054906101000a900473ffffffffffffffffffffffffffffffffffffffff169050600073ffffffffffffffffffffffffffffffffffffffff168173ffffffffffffffffffffffffffffffffffffffff16141561105e576040517f08c379a0000000000000000000000000000000000000000000000000000000008152600401611055906140cc565b60405180910390fd5b80915050919050565b6012602052806000526040600020600091509050805461108690614652565b80601f01602080910402602001604051908101604052809291908181526020018280546110b290614652565b80156110ff5780601f106110d4576101008083540402835291602001916110ff565b820191906000526020600020905b8154815290600101906020018083116110e257829003601f168201915b505050505081565b60008073ffffffffffffffffffffffffffffffffffffffff168273ffffffffffffffffffffffffffffffffffffffff161415611178576040517f08c379a000000000000000000000000000000000000000000000000000000000815260040161116f906140ac565b60405180910390fd5b600960008373ffffffffffffffffffffffffffffffffffffffff1673ffffffffffffffffffffffffffffffffffffffff168152602001908152602001600020549050919050565b600f5481565b6000601180549050905090565b601080546111df90614652565b80601f016020809104026020016040519081016040528092919081815260200182805461120b90614652565b80156112585780601f1061122d57610100808354040283529160200191611258565b820191906000526020600020905b81548152906001019060200180831161123b57829003601f168201915b505050505081565b600061126a611ce3565b90508073ffffffffffffffffffffffffffffffffffffffff1663a9059cbb338373ffffffffffffffffffffffffffffffffffffffff166370a08231306040518263ffffffff1660e01b81526004016112c29190613da5565b60206040518083038186803b1580156112da57600080fd5b505afa1580156112ee573d6000803e3d6000fd5b505050506040513d601f19601f8201168201806040525081019061131291906135e2565b6040518363ffffffff1660e01b815260040161132f929190613e0c565b602060405180830381600087803b15801561134957600080fd5b505af115801561135d573d6000803e3d6000fd5b505050506040513d601f19601f82011682018060405250810190611381919061339e565b6113c0576040517f08c379a00000000000000000000000000000000000000000000000000000000081526004016113b79061410c565b60405180910390fd5b50565b606060005b60208160ff161080156114405750600060f81b838260ff1660208110611417577f4e487b7100000000000000000000000000000000000000000000000000000000600052603260045260246000fd5b1a60f81b7effffffffffffffffffffffffffffffffffffffffffffffffffffffffffffff191614155b15611458578080611450906146cd565b9150506113c8565b60008160ff1667ffffffffffffffff81111561149d577f4e487b7100000000000000000000000000000000000000000000000000000000600052604160045260246000fd5b6040519080825280601f01601f1916602001820160405280156114cf5781602001600182028036833780820191505090505b509050600091505b60208260ff1610801561154f5750600060f81b848360ff1660208110611526577f4e487b7100000000000000000000000000000000000000000000000000000000600052603260045260246000fd5b1a60f81b7effffffffffffffffffffffffffffffffffffffffffffffffffffffffffffff191614155b1561161257838260ff1660208110611590577f4e487b7100000000000000000000000000000000000000000000000000000000600052603260045260246000fd5b1a60f81b818360ff16815181106115d0577f4e487b7100000000000000000000000000000000000000000000000000000000600052603260045260246000fd5b60200101907effffffffffffffffffffffffffffffffffffffffffffffffffffffffffffff1916908160001a905350818061160a906146cd565b9250506114d7565b8092505050919050565b60606007805461162b90614652565b80601f016020809104026020016040519081016040528092919081815260200182805461165790614652565b80156116a45780601f10611679576101008083540402835291602001916116a4565b820191906000526020600020905b81548152906001019060200180831161168757829003601f168201915b5050505050905090565b6116b6611c22565b73ffffffffffffffffffffffffffffffffffffffff168273ffffffffffffffffffffffffffffffffffffffff161415611724576040517f08c379a000000000000000000000000000000000000000000000000000000000815260040161171b9061404c565b60405180910390fd5b80600b6000611731611c22565b73ffffffffffffffffffffffffffffffffffffffff1673ffffffffffffffffffffffffffffffffffffffff16815260200190815260200160002060008473ffffffffffffffffffffffffffffffffffffffff1673ffffffffffffffffffffffffffffffffffffffff16815260200190815260200160002060006101000a81548160ff0219169083151502179055508173ffffffffffffffffffffffffffffffffffffffff166117de611c22565b73ffffffffffffffffffffffffffffffffffffffff167f17307eab39ab6107e8899845ad3d59bd9653f200f220920489ca2b5937696c31836040516118239190613ef8565b60405180910390a35050565b61184061183a611c22565b83611d0d565b61187f576040517f08c379a0000000000000000000000000000000000000000000000000000000008152600401611876906141ac565b60405180910390fd5b61188b848484846120cb565b50505050565b601181815481106118a157600080fd5b90600052602060002090600202016000915090508060000180546118c490614652565b80601f01602080910402602001604051908101604052809291908181526020018280546118f090614652565b801561193d5780601f106119125761010080835404028352916020019161193d565b820191906000526020600020905b81548152906001019060200180831161192057829003601f168201915b50505050509080600101805461195290614652565b80601f016020809104026020016040519081016040528092919081815260200182805461197e90614652565b80156119cb5780601f106119a0576101008083540402835291602001916119cb565b820191906000526020600020905b8154815290600101906020018083116119ae57829003601f168201915b5050505050905082565b60606119e082611bb6565b611a1f576040517f08c379a0000000000000000000000000000000000000000000000000000000008152600401611a169061416c565b60405180910390fd5b6000611a29612127565b90506000815111611a495760405180602001604052806000815250611a74565b80611a538461213e565b604051602001611a64929190613d81565b6040516020818303038152906040525b915050919050565b600e5481565b600d5481565b6000600b60008473ffffffffffffffffffffffffffffffffffffffff1673ffffffffffffffffffffffffffffffffffffffff16815260200190815260200160002060008373ffffffffffffffffffffffffffffffffffffffff1673ffffffffffffffffffffffffffffffffffffffff16815260200190815260200160002060009054906101000a900460ff16905092915050565b611b28848484846122eb565b50505050565b60007f01ffc9a7000000000000000000000000000000000000000000000000000000007bffffffffffffffffffffffffffffffffffffffffffffffffffffffff1916827bffffffffffffffffffffffffffffffffffffffffffffffffffffffff1916149050919050565b611bb28282604051806020016040528060008152506123fe565b5050565b60008073ffffffffffffffffffffffffffffffffffffffff166008600084815260200190815260200160002060009054906101000a900473ffffffffffffffffffffffffffffffffffffffff1673ffffffffffffffffffffffffffffffffffffffff1614159050919050565b600033905090565b81600a600083815260200190815260200160002060006101000a81548173ffffffffffffffffffffffffffffffffffffffff021916908373ffffffffffffffffffffffffffffffffffffffff160217905550808273ffffffffffffffffffffffffffffffffffffffff16611c9d83610fb5565b73ffffffffffffffffffffffffffffffffffffffff167f8c5be1e5ebec7d5bd14f71427d1e84f3dd0314c0f7b2291e5b200ac8c7c3b92560405160405180910390a45050565b6000600260009054906101000a900473ffffffffffffffffffffffffffffffffffffffff16905090565b6000611d1882611bb6565b611d57576040517f08c379a0000000000000000000000000000000000000000000000000000000008152600401611d4e9061406c565b60405180910390fd5b6000611d6283610fb5565b90508073ffffffffffffffffffffffffffffffffffffffff168473ffffffffffffffffffffffffffffffffffffffff161480611dd157508373ffffffffffffffffffffffffffffffffffffffff16611db984610b39565b73ffffffffffffffffffffffffffffffffffffffff16145b80611de25750611de18185611a88565b5b91505092915050565b8273ffffffffffffffffffffffffffffffffffffffff16611e0b82610fb5565b73ffffffffffffffffffffffffffffffffffffffff1614611e61576040517f08c379a0000000000000000000000000000000000000000000000000000000008152600401611e589061414c565b60405180910390fd5b600073ffffffffffffffffffffffffffffffffffffffff168273ffffffffffffffffffffffffffffffffffffffff161415611ed1576040517f08c379a0000000000000000000000000000000000000000000000000000000008152600401611ec89061402c565b60405180910390fd5b611edc838383612459565b611ee7600082611c2a565b6001600960008573ffffffffffffffffffffffffffffffffffffffff1673ffffffffffffffffffffffffffffffffffffffff1681526020019081526020016000206000828254611f37919061452d565b925050819055506001600960008473ffffffffffffffffffffffffffffffffffffffff1673ffffffffffffffffffffffffffffffffffffffff1681526020019081526020016000206000828254611f8e91906142db565b92505081905550816008600083815260200190815260200160002060006101000a81548173ffffffffffffffffffffffffffffffffffffffff021916908373ffffffffffffffffffffffffffffffffffffffff160217905550808273ffffffffffffffffffffffffffffffffffffffff168473ffffffffffffffffffffffffffffffffffffffff167fddf252ad1be2c89b69c2b068fc378daa952ba7f163c4a11628f55a4df523b3ef60405160405180910390a4505050565b61204f612fdb565b612057612fdb565b61206e8585858461245e909392919063ffffffff16565b9150509392505050565b61208f82846080015161250e90919063ffffffff16565b6120a681846080015161250e90919063ffffffff16565b505050565b60006120c28484846001634042994660e01b612533565b90509392505050565b6120d6848484611deb565b6120e28484848461279b565b612121576040517f08c379a000000000000000000000000000000000000000000000000000000000815260040161211890613fcc565b60405180910390fd5b50505050565b606060405180602001604052806000815250905090565b60606000821415612186576040518060400160405280600181526020017f300000000000000000000000000000000000000000000000000000000000000081525090506122e6565b600082905060005b600082146121b85780806121a190614684565b915050600a826121b19190614331565b915061218e565b60008167ffffffffffffffff8111156121fa577f4e487b7100000000000000000000000000000000000000000000000000000000600052604160045260246000fd5b6040519080825280601f01601f19166020018201604052801561222c5781602001600182028036833780820191505090505b5090505b600085146122df57600182612245919061452d565b9150600a856122549190614725565b603061226091906142db565b60f81b81838151811061229c577f4e487b7100000000000000000000000000000000000000000000000000000000600052603260045260246000fd5b60200101907effffffffffffffffffffffffffffffffffffffffffffffffffffffffffffff1916908160001a905350600a856122d89190614331565b9450612230565b8093505050505b919050565b60006005600086815260200190815260200160002060009054906101000a900473ffffffffffffffffffffffffffffffffffffffff1690506005600086815260200190815260200160002060006101000a81549073ffffffffffffffffffffffffffffffffffffffff0219169055847fe1fe3afa0f7f761ff0a8b89086790efd5140d2907ebd5b7ff6bfcb5e075fd4c560405160405180910390a28073ffffffffffffffffffffffffffffffffffffffff16636ee4d553868686866040518563ffffffff1660e01b81526004016123c59493929190613f2e565b600060405180830381600087803b1580156123df57600080fd5b505af11580156123f3573d6000803e3d6000fd5b505050505050505050565b6124088383612932565b612415600084848461279b565b612454576040517f08c379a000000000000000000000000000000000000000000000000000000000815260040161244b90613fcc565b60405180910390fd5b505050565b505050565b612466612fdb565b6124768560800151610100612b00565b508385600001818152505082856020019073ffffffffffffffffffffffffffffffffffffffff16908173ffffffffffffffffffffffffffffffffffffffff16815250508185604001907bffffffffffffffffffffffffffffffffffffffffffffffffffffffff191690817bffffffffffffffffffffffffffffffffffffffffffffffffffffffff191681525050849050949350505050565b61251b8260038351612b6a565b61252e8183612caf90919063ffffffff16565b505050565b60003060045460405160200161254a929190613d55565b604051602081830303815290604052805190602001209050600454856060018181525050856005600083815260200190815260200160002060006101000a81548173ffffffffffffffffffffffffffffffffffffffff021916908373ffffffffffffffffffffffffffffffffffffffff160217905550807fb5e6e01e79f91267dc17b4e6314d5d4d03593d2ceee0fbb452b750bd70ea5af960405160405180910390a2600082600080886000015189602001518a604001518b606001518a8d6080015160000151604051602401612628989796959493929190613e35565b604051602081830303815290604052907bffffffffffffffffffffffffffffffffffffffffffffffffffffffff19166020820180517bffffffffffffffffffffffffffffffffffffffffffffffffffffffff83818316178352505050509050600260009054906101000a900473ffffffffffffffffffffffffffffffffffffffff1673ffffffffffffffffffffffffffffffffffffffff16634000aea08887846040518463ffffffff1660e01b81526004016126e693929190613eba565b602060405180830381600087803b15801561270057600080fd5b505af1158015612714573d6000803e3d6000fd5b505050506040513d601f19601f82011682018060405250810190612738919061339e565b612777576040517f08c379a000000000000000000000000000000000000000000000000000000000815260040161276e9061400c565b60405180910390fd5b60016004600082825461278a91906142db565b925050819055505095945050505050565b60006127bc8473ffffffffffffffffffffffffffffffffffffffff16612cd1565b15612925578373ffffffffffffffffffffffffffffffffffffffff1663150b7a026127e5611c22565b8786866040518563ffffffff1660e01b81526004016128079493929190613dc0565b602060405180830381600087803b15801561282157600080fd5b505af192505050801561285257506040513d601f19601f8201168201806040525081019061284f91906134b8565b60015b6128d5573d8060008114612882576040519150601f19603f3d011682016040523d82523d6000602084013e612887565b606091505b506000815114156128cd576040517f08c379a00000000000000000000000000000000000000000000000000000000081526004016128c490613fcc565b60405180910390fd5b805181602001fd5b63150b7a0260e01b7bffffffffffffffffffffffffffffffffffffffffffffffffffffffff1916817bffffffffffffffffffffffffffffffffffffffffffffffffffffffff19161491505061292a565b600190505b949350505050565b600073ffffffffffffffffffffffffffffffffffffffff168273ffffffffffffffffffffffffffffffffffffffff1614156129a2576040517f08c379a0000000000000000000000000000000000000000000000000000000008152600401612999906140ec565b60405180910390fd5b6129ab81611bb6565b156129eb576040517f08c379a00000000000000000000000000000000000000000000000000000000081526004016129e290613fec565b60405180910390fd5b6129f760008383612459565b6001600960008473ffffffffffffffffffffffffffffffffffffffff1673ffffffffffffffffffffffffffffffffffffffff1681526020019081526020016000206000828254612a4791906142db565b92505081905550816008600083815260200190815260200160002060006101000a81548173ffffffffffffffffffffffffffffffffffffffff021916908373ffffffffffffffffffffffffffffffffffffffff160217905550808273ffffffffffffffffffffffffffffffffffffffff16600073ffffffffffffffffffffffffffffffffffffffff167fddf252ad1be2c89b69c2b068fc378daa952ba7f163c4a11628f55a4df523b3ef60405160405180910390a45050565b612b08613048565b6000602083612b179190614725565b14612b4357602082612b299190614725565b6020612b35919061452d565b82612b4091906142db565b91505b81836020018181525050604051808452600081528281016020016040525082905092915050565b60178111612b9757612b918160058460ff16901b60ff161784612ce490919063ffffffff16565b50612caa565b60ff8111612bd957612bbc601860058460ff16901b1784612ce490919063ffffffff16565b50612bd381600185612d049092919063ffffffff16565b50612ca9565b61ffff8111612c1c57612bff601960058460ff16901b1784612ce490919063ffffffff16565b50612c1681600285612d049092919063ffffffff16565b50612ca8565b63ffffffff8111612c6157612c44601a60058460ff16901b1784612ce490919063ffffffff16565b50612c5b81600485612d049092919063ffffffff16565b50612ca7565b67ffffffffffffffff8111612ca657612c8d601b60058460ff16901b1784612ce490919063ffffffff16565b50612ca481600885612d049092919063ffffffff16565b505b5b5b5b5b505050565b612cb7613048565b612cc983846000015151848551612d26565b905092915050565b600080823b905060008111915050919050565b612cec613048565b612cfc8384600001515184612e30565b905092915050565b612d0c613048565b612d1d848560000151518585612e87565b90509392505050565b612d2e613048565b8251821115612d3c57600080fd5b84602001518285612d4d91906142db565b1115612d8257612d81856002612d7288602001518887612d6d91906142db565b612f15565b612d7c91906144d3565b612f31565b5b600080865180518760208301019350808887011115612da15787860182525b60208701925050505b60208410612de85780518252602082612dc391906142db565b9150602081612dd291906142db565b9050602084612de1919061452d565b9350612daa565b60006001856020612df9919061452d565b610100612e0691906143b5565b612e10919061452d565b905080198251168184511681811785525050879350505050949350505050565b612e38613048565b83602001518310612e5e57612e5d8460028660200151612e5891906144d3565b612f31565b5b8351805160208583010184815381861415612e7a576001820183525b5050508390509392505050565b612e8f613048565b84602001518483612ea091906142db565b1115612ec857612ec78560028685612eb891906142db565b612ec291906144d3565b612f31565b5b6000600183610100612eda91906143b5565b612ee4919061452d565b90508551838682010185831982511617815281518588011115612f075784870182525b505085915050949350505050565b600081831115612f2757829050612f2b565b8190505b92915050565b600082600001519050612f448383612b00565b50612f4f8382612caf565b50505050565b828054612f6190614652565b90600052602060002090601f016020900481019282612f835760008555612fca565b82601f10612f9c57805160ff1916838001178555612fca565b82800160010185558215612fca579182015b82811115612fc9578251825591602001919060010190612fae565b5b509050612fd79190613062565b5090565b6040518060a0016040528060008019168152602001600073ffffffffffffffffffffffffffffffffffffffff16815260200160007bffffffffffffffffffffffffffffffffffffffffffffffffffffffff1916815260200160008152602001613042613048565b81525090565b604051806040016040528060608152602001600081525090565b5b8082111561307b576000816000905550600101613063565b5090565b600061309261308d84614238565b614207565b9050828152602081018484840111156130aa57600080fd5b6130b5848285614610565b509392505050565b60006130d06130cb84614268565b614207565b9050828152602081018484840111156130e857600080fd5b6130f3848285614610565b509392505050565b60008135905061310a8161483d565b92915050565b60008135905061311f81614854565b92915050565b60008151905061313481614854565b92915050565b6000813590506131498161486b565b92915050565b60008135905061315e81614882565b92915050565b60008151905061317381614882565b92915050565b600082601f83011261318a57600080fd5b813561319a84826020860161307f565b91505092915050565b600082601f8301126131b457600080fd5b81356131c48482602086016130bd565b91505092915050565b6000813590506131dc81614899565b92915050565b6000815190506131f181614899565b92915050565b60006020828403121561320957600080fd5b6000613217848285016130fb565b91505092915050565b6000806040838503121561323357600080fd5b6000613241858286016130fb565b9250506020613252858286016130fb565b9150509250929050565b60008060006060848603121561327157600080fd5b600061327f868287016130fb565b9350506020613290868287016130fb565b92505060406132a1868287016131cd565b9150509250925092565b600080600080608085870312156132c157600080fd5b60006132cf878288016130fb565b94505060206132e0878288016130fb565b93505060406132f1878288016131cd565b925050606085013567ffffffffffffffff81111561330e57600080fd5b61331a87828801613179565b91505092959194509250565b6000806040838503121561333957600080fd5b6000613347858286016130fb565b925050602061335885828601613110565b9150509250929050565b6000806040838503121561337557600080fd5b6000613383858286016130fb565b9250506020613394858286016131cd565b9150509250929050565b6000602082840312156133b057600080fd5b60006133be84828501613125565b91505092915050565b6000602082840312156133d957600080fd5b60006133e78482850161313a565b91505092915050565b6000806040838503121561340357600080fd5b60006134118582860161313a565b92505060206134228582860161313a565b9150509250929050565b6000806000806080858703121561344257600080fd5b60006134508782880161313a565b9450506020613461878288016131cd565b93505060406134728782880161314f565b9250506060613483878288016131cd565b91505092959194509250565b6000602082840312156134a157600080fd5b60006134af8482850161314f565b91505092915050565b6000602082840312156134ca57600080fd5b60006134d884828501613164565b91505092915050565b6000602082840312156134f357600080fd5b600082013567ffffffffffffffff81111561350d57600080fd5b613519848285016131a3565b91505092915050565b60008060006060848603121561353757600080fd5b600084013567ffffffffffffffff81111561355157600080fd5b61355d868287016131a3565b935050602084013567ffffffffffffffff81111561357a57600080fd5b613586868287016131a3565b925050604084013567ffffffffffffffff8111156135a357600080fd5b6135af868287016131a3565b9150509250925092565b6000602082840312156135cb57600080fd5b60006135d9848285016131cd565b91505092915050565b6000602082840312156135f457600080fd5b6000613602848285016131e2565b91505092915050565b61361481614561565b82525050565b61362381614573565b82525050565b6136328161457f565b82525050565b61364181614589565b82525050565b600061365282614298565b61365c81856142ae565b935061366c81856020860161461f565b61367581614812565b840191505092915050565b61369161368c826145ec565b6146f7565b82525050565b60006136a2826142a3565b6136ac81856142bf565b93506136bc81856020860161461f565b6136c581614812565b840191505092915050565b60006136db826142a3565b6136e581856142d0565b93506136f581856020860161461f565b80840191505092915050565b600061370e6032836142bf565b91507f4552433732313a207472616e7366657220746f206e6f6e20455243373231526560008301527f63656976657220696d706c656d656e74657200000000000000000000000000006020830152604082019050919050565b6000613774601c836142bf565b91507f4552433732313a20746f6b656e20616c7265616479206d696e746564000000006000830152602082019050919050565b60006137b46023836142bf565b91507f756e61626c6520746f207472616e73666572416e6443616c6c20746f206f726160008301527f636c6500000000000000000000000000000000000000000000000000000000006020830152604082019050919050565b600061381a6024836142bf565b91507f4552433732313a207472616e7366657220746f20746865207a65726f2061646460008301527f72657373000000000000000000000000000000000000000000000000000000006020830152604082019050919050565b60006138806019836142bf565b91507f4552433732313a20617070726f766520746f2063616c6c6572000000000000006000830152602082019050919050565b60006138c0602c836142bf565b91507f4552433732313a206f70657261746f7220717565727920666f72206e6f6e657860008301527f697374656e7420746f6b656e00000000000000000000000000000000000000006020830152604082019050919050565b60006139266038836142bf565b91507f4552433732313a20617070726f76652063616c6c6572206973206e6f74206f7760008301527f6e6572206e6f7220617070726f76656420666f7220616c6c00000000000000006020830152604082019050919050565b600061398c602a836142bf565b91507f4552433732313a2062616c616e636520717565727920666f7220746865207a6560008301527f726f2061646472657373000000000000000000000000000000000000000000006020830152604082019050919050565b60006139f26029836142bf565b91507f4552433732313a206f776e657220717565727920666f72206e6f6e657869737460008301527f656e7420746f6b656e00000000000000000000000000000000000000000000006020830152604082019050919050565b6000613a586020836142bf565b91507f4552433732313a206d696e7420746f20746865207a65726f20616464726573736000830152602082019050919050565b6000613a986012836142bf565b91507f556e61626c6520746f207472616e7366657200000000000000000000000000006000830152602082019050919050565b6000613ad8602c836142bf565b91507f4552433732313a20617070726f76656420717565727920666f72206e6f6e657860008301527f697374656e7420746f6b656e00000000000000000000000000000000000000006020830152604082019050919050565b6000613b3e6029836142bf565b91507f4552433732313a207472616e73666572206f6620746f6b656e2074686174206960008301527f73206e6f74206f776e00000000000000000000000000000000000000000000006020830152604082019050919050565b6000613ba4602f836142bf565b91507f4552433732314d657461646174613a2055524920717565727920666f72206e6f60008301527f6e6578697374656e7420746f6b656e00000000000000000000000000000000006020830152604082019050919050565b6000613c0a6021836142bf565b91507f4552433732313a20617070726f76616c20746f2063757272656e74206f776e6560008301527f72000000000000000000000000000000000000000000000000000000000000006020830152604082019050919050565b6000613c706031836142bf565b91507f4552433732313a207472616e736665722063616c6c6572206973206e6f74206f60008301527f776e6572206e6f7220617070726f7665640000000000000000000000000000006020830152604082019050919050565b6000613cd66028836142bf565b91507f536f75726365206d75737420626520746865206f7261636c65206f662074686560008301527f20726571756573740000000000000000000000000000000000000000000000006020830152604082019050919050565b613d38816145d5565b82525050565b613d4f613d4a826145d5565b61471b565b82525050565b6000613d618285613680565b601482019150613d718284613d3e565b6020820191508190509392505050565b6000613d8d82856136d0565b9150613d9982846136d0565b91508190509392505050565b6000602082019050613dba600083018461360b565b92915050565b6000608082019050613dd5600083018761360b565b613de2602083018661360b565b613def6040830185613d2f565b8181036060830152613e018184613647565b905095945050505050565b6000604082019050613e21600083018561360b565b613e2e6020830184613d2f565b9392505050565b600061010082019050613e4b600083018b61360b565b613e58602083018a613d2f565b613e656040830189613629565b613e72606083018861360b565b613e7f6080830187613638565b613e8c60a0830186613d2f565b613e9960c0830185613d2f565b81810360e0830152613eab8184613647565b90509998505050505050505050565b6000606082019050613ecf600083018661360b565b613edc6020830185613d2f565b8181036040830152613eee8184613647565b9050949350505050565b6000602082019050613f0d600083018461361a565b92915050565b6000602082019050613f286000830184613629565b92915050565b6000608082019050613f436000830187613629565b613f506020830186613d2f565b613f5d6040830185613638565b613f6a6060830184613d2f565b95945050505050565b60006020820190508181036000830152613f8d8184613697565b905092915050565b60006040820190508181036000830152613faf8185613697565b90508181036020830152613fc38184613697565b90509392505050565b60006020820190508181036000830152613fe581613701565b9050919050565b6000602082019050818103600083015261400581613767565b9050919050565b60006020820190508181036000830152614025816137a7565b9050919050565b600060208201905081810360008301526140458161380d565b9050919050565b6000602082019050818103600083015261406581613873565b9050919050565b60006020820190508181036000830152614085816138b3565b9050919050565b600060208201905081810360008301526140a581613919565b9050919050565b600060208201905081810360008301526140c58161397f565b9050919050565b600060208201905081810360008301526140e5816139e5565b9050919050565b6000602082019050818103600083015261410581613a4b565b9050919050565b6000602082019050818103600083015261412581613a8b565b9050919050565b6000602082019050818103600083015261414581613acb565b9050919050565b6000602082019050818103600083015261416581613b31565b9050919050565b6000602082019050818103600083015261418581613b97565b9050919050565b600060208201905081810360008301526141a581613bfd565b9050919050565b600060208201905081810360008301526141c581613c63565b9050919050565b600060208201905081810360008301526141e581613cc9565b9050919050565b60006020820190506142016000830184613d2f565b92915050565b6000604051905081810181811067ffffffffffffffff8211171561422e5761422d6147e3565b5b8060405250919050565b600067ffffffffffffffff821115614253576142526147e3565b5b601f19601f8301169050602081019050919050565b600067ffffffffffffffff821115614283576142826147e3565b5b601f19601f8301169050602081019050919050565b600081519050919050565b600081519050919050565b600082825260208201905092915050565b600082825260208201905092915050565b600081905092915050565b60006142e6826145d5565b91506142f1836145d5565b9250827fffffffffffffffffffffffffffffffffffffffffffffffffffffffffffffffff0382111561432657614325614756565b5b828201905092915050565b600061433c826145d5565b9150614347836145d5565b92508261435757614356614785565b5b828204905092915050565b6000808291508390505b60018511156143ac5780860481111561438857614387614756565b5b60018516156143975780820291505b80810290506143a585614830565b945061436c565b94509492505050565b60006143c0826145d5565b91506143cb836145d5565b92506143f87fffffffffffffffffffffffffffffffffffffffffffffffffffffffffffffffff8484614400565b905092915050565b60008261441057600190506144cc565b8161441e57600090506144cc565b8160018114614434576002811461443e5761446d565b60019150506144cc565b60ff8411156144505761444f614756565b5b8360020a91508482111561446757614466614756565b5b506144cc565b5060208310610133831016604e8410600b84101617156144a25782820a90508381111561449d5761449c614756565b5b6144cc565b6144af8484846001614362565b925090508184048111156144c6576144c5614756565b5b81810290505b9392505050565b60006144de826145d5565b91506144e9836145d5565b9250817fffffffffffffffffffffffffffffffffffffffffffffffffffffffffffffffff048311821515161561452257614521614756565b5b828202905092915050565b6000614538826145d5565b9150614543836145d5565b92508282101561455657614555614756565b5b828203905092915050565b600061456c826145b5565b9050919050565b60008115159050919050565b6000819050919050565b60007fffffffff0000000000000000000000000000000000000000000000000000000082169050919050565b600073ffffffffffffffffffffffffffffffffffffffff82169050919050565b6000819050919050565b600060ff82169050919050565b60006145f7826145fe565b9050919050565b6000614609826145b5565b9050919050565b82818337600083830152505050565b60005b8381101561463d578082015181840152602081019050614622565b8381111561464c576000848401525b50505050565b6000600282049050600182168061466a57607f821691505b6020821081141561467e5761467d6147b4565b5b50919050565b600061468f826145d5565b91507fffffffffffffffffffffffffffffffffffffffffffffffffffffffffffffffff8214156146c2576146c1614756565b5b600182019050919050565b60006146d8826145df565b915060ff8214156146ec576146eb614756565b5b600182019050919050565b600061470282614709565b9050919050565b600061471482614823565b9050919050565b6000819050919050565b6000614730826145d5565b915061473b836145d5565b92508261474b5761474a614785565b5b828206905092915050565b7f4e487b7100000000000000000000000000000000000000000000000000000000600052601160045260246000fd5b7f4e487b7100000000000000000000000000000000000000000000000000000000600052601260045260246000fd5b7f4e487b7100000000000000000000000000000000000000000000000000000000600052602260045260246000fd5b7f4e487b7100000000000000000000000000000000000000000000000000000000600052604160045260246000fd5b6000601f19601f8301169050919050565b60008160601b9050919050565b60008160011c9050919050565b61484681614561565b811461485157600080fd5b50565b61485d81614573565b811461486857600080fd5b50565b6148748161457f565b811461487f57600080fd5b50565b61488b81614589565b811461489657600080fd5b50565b6148a2816145d5565b81146148ad57600080fd5b5056fea2646970667358221220056d83b5e6b4491d4f0b64070ef4c81891fb183f282431f20d7a7fb34dc4712c64736f6c63430008000033",
  "immutableReferences": {},
  "source": "// SPDX-License-Identifier: MIT\npragma solidity ^0.8.0;\n\nimport \"@chainlink/contracts/src/v0.8/ChainlinkClient.sol\";\nimport \"@openzeppelin/contracts/token/ERC721/ERC721.sol\";\nimport \"@openzeppelin/contracts/token/ERC721/extensions/ERC721URIStorage.sol\";\n\n/**\n * @title MyContract is an example contract which requests data from\n * the Chainlink network\n * @dev This contract is designed to work on multiple networks, including\n * local test networks\n */\ncontract MyContract is ChainlinkClient, ERC721 {\n  using Chainlink for Chainlink.Request;\n\n  address constant ORACLE = 0xF405B99ACa8578B9eb989ee2b69D518aaDb90c1F;\n  bytes32 constant JOB_ID = bytes32(\"7c4b968028f74b2eabd7d428f03ba45c\");\n  uint256 constant FEE = 0.1 * 10 ** 18;\n\n  bytes32 internal keyHash;\n  uint256 public fee;\n  uint256 public tokenCounter;\n\n  enum Game{FORTNITE, CSGO, MINECRAFT}\n\n\n  // bytes32 public data;\n\n  bytes32 public data;\n  string public image_url;\n\n  struct Clip {\n      string name;\n      string url;\n  }\n\n  Clip[] public clips;\n\n  mapping(bytes32 => string) public requestToClipName;\n  mapping(bytes32 => address) public requestIdToSender;\n  mapping(bytes32 => string) public requestIdToTokenURI;\n\n  event requestedCollectible(bytes32 indexed requestId);\n\n  mapping(bytes32 => uint256) requestToTokenId;\n\n\n  constructor(address _link) \n  ERC721(\"Tests\", \"TST\")\n  public \n  {\n    if (_link == address(0)) {\n      setPublicChainlinkToken();\n    } else {\n      setChainlinkToken(_link);\n    }\n    setChainlinkOracle(0xF405B99ACa8578B9eb989ee2b69D518aaDb90c1F);\n    tokenCounter = 0;\n  }\n\n  function createCollectible(string memory tokenURI) public returns (bytes32) {\n\n  }\n\n\n  function getChainlinkToken() public view returns (address) {\n    return chainlinkTokenAddress();\n  }\n\n\n  function createRequestTo(\n    string memory _url,\n    string memory _path,\n    string memory tokenURI\n  )\n    public\n    returns (bytes32 requestId) \n  {\n    Chainlink.Request memory req = buildChainlinkRequest(JOB_ID, address(this), this.fulfill.selector);\n    req.add(\"get\", _url);\n    req.add(\"path\", _path);\n    // requestOracleData(req, FEE);\n\n    requestId = sendChainlinkRequestTo(ORACLE, req, FEE);\n    // requestToClipName[requestId] = name;\n    requestIdToTokenURI[requestId] = tokenURI;\n    requestIdToSender[requestId] = msg.sender;\n    return requestId;\n  }\n\n  // event RequestFulfilled(bytes32 indexed requestId, bytes indexed data);\n\n\n  function fulfill(bytes32 _requestId, bytes32 _data)\n    public\n    recordChainlinkFulfillment(_requestId)\n  {\n    address nftOwner = requestIdToSender[_requestId];\n    uint256 newId = clips.length;\n    string memory tokenURI = requestIdToTokenURI[_requestId];\n\n    // _safeMint(nftOwner, newItemId);\n    // _setTokenURI(newItemId, tokenURI);\n\n    // emit RequestFulfilled(requestId, bytesData);\n    data = _data;\n    image_url = bytes32ToString(data);\n\n    clips.push(\n        Clip(\n            requestIdToTokenURI[_requestId],\n            image_url\n        )\n    );\n    _safeMint(nftOwner, newId);\n  }\n\n  // function setTokenURI(uint256 tokenId, string memory _tokenURI) public {\n  //   require(\n  //     _isApprovedOrOwner(_msgSender(), tokenId),\n  //     \"ERC721: transfer caller is not owner nor approved\"\n  //   );\n  //   _setTokenURI(tokenId, _tokenURI);\n  // }\n\n  function getNumberOfClips() public view returns (uint256) {\n    return clips.length;\n  }\n\n  /**\n   * @notice Allows the owner to withdraw any LINK balance on the contract\n   */\n  function withdrawLink() public {\n    LinkTokenInterface link = LinkTokenInterface(chainlinkTokenAddress());\n    require(link.transfer(msg.sender, link.balanceOf(address(this))), \"Unable to transfer\");\n  }\n\n  /**\n   * @notice Call this method if no response is received within 5 minutes\n   * @param _requestId The ID that was generated for the request to cancel\n   * @param _payment The payment specified for the request to cancel\n   * @param _callbackFunctionId The bytes4 callback function ID specified for\n   * the request to cancel\n   * @param _expiration The expiration generated for the request to cancel\n   */\n  function cancelRequest(\n    bytes32 _requestId,\n    uint256 _payment,\n    bytes4 _callbackFunctionId,\n    uint256 _expiration\n  )\n    public\n  {\n    cancelChainlinkRequest(_requestId, _payment, _callbackFunctionId, _expiration);\n  }\n\n  function bytes32ToString(bytes32 _bytes32) public pure returns (string memory) {\n      uint8 i = 0;\n      while(i < 32 && _bytes32[i] != 0) {\n          i++;\n      }\n      bytes memory bytesArray = new bytes(i);\n      for (i = 0; i < 32 && _bytes32[i] != 0; i++) {\n          bytesArray[i] = _bytes32[i];\n      }\n      return string(bytesArray);\n  }\n}\n",
  "sourcePath": "/Users/oliverjaros/Develop/chainlink-api-test/contracts/MyContract.sol",
  "compiler": {
    "name": "solc",
    "version": "0.8.0+commit.c7dfd78e.Emscripten.clang"
  },
  "schemaVersion": "3.4.3",
  "updatedAt": "2021-09-13T18:59:50.711Z",
  "devdoc": {
    "details": "This contract is designed to work on multiple networks, including local test networks",
    "kind": "dev",
    "methods": {
      "approve(address,uint256)": {
        "details": "See {IERC721-approve}."
      },
      "balanceOf(address)": {
        "details": "See {IERC721-balanceOf}."
      },
      "cancelRequest(bytes32,uint256,bytes4,uint256)": {
        "params": {
          "_callbackFunctionId": "The bytes4 callback function ID specified for the request to cancel",
          "_expiration": "The expiration generated for the request to cancel",
          "_payment": "The payment specified for the request to cancel",
          "_requestId": "The ID that was generated for the request to cancel"
        }
      },
      "getApproved(uint256)": {
        "details": "See {IERC721-getApproved}."
      },
      "isApprovedForAll(address,address)": {
        "details": "See {IERC721-isApprovedForAll}."
      },
      "name()": {
        "details": "See {IERC721Metadata-name}."
      },
      "ownerOf(uint256)": {
        "details": "See {IERC721-ownerOf}."
      },
      "safeTransferFrom(address,address,uint256)": {
        "details": "See {IERC721-safeTransferFrom}."
      },
      "safeTransferFrom(address,address,uint256,bytes)": {
        "details": "See {IERC721-safeTransferFrom}."
      },
      "setApprovalForAll(address,bool)": {
        "details": "See {IERC721-setApprovalForAll}."
      },
      "supportsInterface(bytes4)": {
        "details": "See {IERC165-supportsInterface}."
      },
      "symbol()": {
        "details": "See {IERC721Metadata-symbol}."
      },
      "tokenURI(uint256)": {
        "details": "See {IERC721Metadata-tokenURI}."
      },
      "transferFrom(address,address,uint256)": {
        "details": "See {IERC721-transferFrom}."
      }
    },
    "title": "MyContract is an example contract which requests data from the Chainlink network",
    "version": 1
  },
  "userdoc": {
    "kind": "user",
    "methods": {
      "cancelRequest(bytes32,uint256,bytes4,uint256)": {
        "notice": "Call this method if no response is received within 5 minutes"
      },
      "withdrawLink()": {
        "notice": "Allows the owner to withdraw any LINK balance on the contract"
      }
    },
    "version": 1
  }
}