{
  "contractName": "RandomNumberConsumer",
  "abi": [
    {
      "inputs": [
        {
          "internalType": "address",
          "name": "_linkTokenAddress",
          "type": "address"
        },
        {
          "internalType": "bytes32",
          "name": "_keyHash",
          "type": "bytes32"
        },
        {
          "internalType": "address",
          "name": "_vrfCoordinatorAddress",
          "type": "address"
        },
        {
          "internalType": "uint256",
          "name": "_fee",
          "type": "uint256"
        }
      ],
      "stateMutability": "nonpayable",
      "type": "constructor"
    },
    {
      "anonymous": false,
      "inputs": [
        {
          "indexed": false,
          "internalType": "bytes32",
          "name": "requestId",
          "type": "bytes32"
        }
      ],
      "name": "RequestedRandomness",
      "type": "event"
    },
    {
      "inputs": [],
      "name": "randomResult",
      "outputs": [
        {
          "internalType": "uint256",
          "name": "",
          "type": "uint256"
        }
      ],
      "stateMutability": "view",
      "type": "function"
    },
    {
      "inputs": [
        {
          "internalType": "bytes32",
          "name": "requestId",
          "type": "bytes32"
        },
        {
          "internalType": "uint256",
          "name": "randomness",
          "type": "uint256"
        }
      ],
      "name": "rawFulfillRandomness",
      "outputs": [],
      "stateMutability": "nonpayable",
      "type": "function"
    },
    {
      "inputs": [],
      "name": "getRandomNumber",
      "outputs": [
        {
          "internalType": "bytes32",
          "name": "requestId",
          "type": "bytes32"
        }
      ],
      "stateMutability": "nonpayable",
      "type": "function"
    },
    {
      "inputs": [],
      "name": "getChainlinkToken",
      "outputs": [
        {
          "internalType": "address",
          "name": "",
          "type": "address"
        }
      ],
      "stateMutability": "view",
      "type": "function"
    }
  ],
  "bytecode": "0x60c060405234801561001057600080fd5b5060405162000a7038038062000a70833981810160405281019061003491906100fc565b81848173ffffffffffffffffffffffffffffffffffffffff1660a08173ffffffffffffffffffffffffffffffffffffffff1660601b815250508073ffffffffffffffffffffffffffffffffffffffff1660808173ffffffffffffffffffffffffffffffffffffffff1660601b8152505050508260018190555080600281905550505050506101ea565b6000815190506100cc816101a5565b92915050565b6000815190506100e1816101bc565b92915050565b6000815190506100f6816101d3565b92915050565b6000806000806080858703121561011257600080fd5b6000610120878288016100bd565b9450506020610131878288016100d2565b9350506040610142878288016100bd565b9250506060610153878288016100e7565b91505092959194509250565b600061016a8261017b565b9050919050565b6000819050919050565b600073ffffffffffffffffffffffffffffffffffffffff82169050919050565b6000819050919050565b6101ae8161015f565b81146101b957600080fd5b50565b6101c581610171565b81146101d057600080fd5b50565b6101dc8161019b565b81146101e757600080fd5b50565b60805160601c60a05160601c61084e620002226000396000818160f7015261022801526000818160cb01526101ec015261084e6000f3fe608060405234801561001057600080fd5b506004361061004c5760003560e01c8063165d35e11461005157806342619f661461006f57806394985ddd1461008d578063dbdff2c1146100a9575b600080fd5b6100596100c7565b604051610066919061055a565b60405180910390f35b6100776100ef565b604051610084919061065c565b60405180910390f35b6100a760048036038101906100a2919061041e565b6100f5565b005b6100b1610191565b6040516100be91906105b3565b60405180910390f35b60007f0000000000000000000000000000000000000000000000000000000000000000905090565b60035481565b7f000000000000000000000000000000000000000000000000000000000000000073ffffffffffffffffffffffffffffffffffffffff163373ffffffffffffffffffffffffffffffffffffffff1614610183576040517f08c379a000000000000000000000000000000000000000000000000000000000815260040161017a9061063c565b60405180910390fd5b61018d82826101dd565b5050565b60006101a16001546002546101e8565b90507fe5f5b44d72d4143c278eb745c4acc0695c4a5bc616be5beecf46abe29661780e816040516101d291906105b3565b60405180910390a190565b806003819055505050565b60007f000000000000000000000000000000000000000000000000000000000000000073ffffffffffffffffffffffffffffffffffffffff16634000aea07f00000000000000000000000000000000000000000000000000000000000000008486600060405160200161025c9291906105ce565b6040516020818303038152906040526040518463ffffffff1660e01b815260040161028993929190610575565b602060405180830381600087803b1580156102a357600080fd5b505af11580156102b7573d6000803e3d6000fd5b505050506040513d601f19601f820116820180604052508101906102db91906103f5565b5060006102fd8460003060008089815260200190815260200160002054610347565b905060016000808681526020019081526020016000205461031e91906106a4565b6000808681526020019081526020016000208190555061033e8482610383565b91505092915050565b60008484848460405160200161036094939291906105f7565b6040516020818303038152906040528051906020012060001c9050949350505050565b6000828260405160200161039892919061052e565b60405160208183030381529060405280519060200120905092915050565b6000815190506103c5816107d3565b92915050565b6000813590506103da816107ea565b92915050565b6000813590506103ef81610801565b92915050565b60006020828403121561040757600080fd5b6000610415848285016103b6565b91505092915050565b6000806040838503121561043157600080fd5b600061043f858286016103cb565b9250506020610450858286016103e0565b9150509250929050565b610463816106fa565b82525050565b61047281610718565b82525050565b61048961048482610718565b61077f565b82525050565b600061049a82610677565b6104a48185610682565b93506104b481856020860161074c565b6104bd816107c2565b840191505092915050565b60006104d5601f83610693565b91507f4f6e6c7920565246436f6f7264696e61746f722063616e2066756c66696c6c006000830152602082019050919050565b61051181610742565b82525050565b61052861052382610742565b610789565b82525050565b600061053a8285610478565b60208201915061054a8284610517565b6020820191508190509392505050565b600060208201905061056f600083018461045a565b92915050565b600060608201905061058a600083018661045a565b6105976020830185610508565b81810360408301526105a9818461048f565b9050949350505050565b60006020820190506105c86000830184610469565b92915050565b60006040820190506105e36000830185610469565b6105f06020830184610508565b9392505050565b600060808201905061060c6000830187610469565b6106196020830186610508565b610626604083018561045a565b6106336060830184610508565b95945050505050565b60006020820190508181036000830152610655816104c8565b9050919050565b60006020820190506106716000830184610508565b92915050565b600081519050919050565b600082825260208201905092915050565b600082825260208201905092915050565b60006106af82610742565b91506106ba83610742565b9250827fffffffffffffffffffffffffffffffffffffffffffffffffffffffffffffffff038211156106ef576106ee610793565b5b828201905092915050565b600061070582610722565b9050919050565b60008115159050919050565b6000819050919050565b600073ffffffffffffffffffffffffffffffffffffffff82169050919050565b6000819050919050565b60005b8381101561076a57808201518184015260208101905061074f565b83811115610779576000848401525b50505050565b6000819050919050565b6000819050919050565b7f4e487b7100000000000000000000000000000000000000000000000000000000600052601160045260246000fd5b6000601f19601f8301169050919050565b6107dc8161070c565b81146107e757600080fd5b50565b6107f381610718565b81146107fe57600080fd5b50565b61080a81610742565b811461081557600080fd5b5056fea2646970667358221220d90f90d1ce10a958022a8b2530397b166e5b641ba413fb52ee6f71b8aaaca37464736f6c63430008000033",
  "immutableReferences": {
    "873": [
      {
        "length": 32,
        "start": 203
      },
      {
        "length": 32,
        "start": 492
      }
    ],
    "875": [
      {
        "length": 32,
        "start": 247
      },
      {
        "length": 32,
        "start": 552
      }
    ]
  },
  "source": "// SPDX-License-Identifier: MIT\npragma solidity ^0.8.0;\n\nimport \"@chainlink/contracts/src/v0.8/VRFConsumerBase.sol\";\n\ncontract RandomNumberConsumer is VRFConsumerBase {\n    \n    bytes32 internal keyHash;\n    uint256 internal fee;\n    uint256 public randomResult;\n    event RequestedRandomness(bytes32 requestId);\n    \n    /**\n     * Constructor inherits VRFConsumerBase\n     * \n     * Network: Kovan\n     * Chainlink VRF Coordinator address: 0xdD3782915140c8f3b190B5D67eAc6dc5760C46E9\n     * LINK token address:                0xa36085F69e2889c224210F603D836748e7dC0088\n     * Key Hash: 0x6c3699283bda56ad74f6b855546325b68d482e983852a7a82979cc4807b641f4\n     */\n    constructor(address _linkTokenAddress, bytes32 _keyHash, \n    address _vrfCoordinatorAddress, uint256 _fee)\n        public\n        VRFConsumerBase(\n            _vrfCoordinatorAddress, // VRF Coordinator\n            _linkTokenAddress  // LINK Token\n        )\n    {\n        keyHash = _keyHash;\n        fee = _fee;\n    }\n    \n    /** \n     * Requests randomness from a user-provided seed\n     */\n    function getRandomNumber() public returns (bytes32 requestId) {\n        requestId = requestRandomness(keyHash, fee);\n        emit RequestedRandomness(requestId);\n    }\n\n    /** \n     * Requests the address of the Chainlink Token on this network \n     */\n    function getChainlinkToken() public view returns (address) {\n        return address(LINK);\n    }\n\n    /**\n     * Callback function used by VRF Coordinator\n     */\n    function fulfillRandomness(bytes32 /* requestId */, uint256 randomness) internal override {\n        randomResult = randomness;\n    }\n}\n",
  "sourcePath": "/Users/oliverjaros/Develop/chainlink-api-test/contracts/RandomNumberConsumer.sol",
  "compiler": {
    "name": "solc",
    "version": "0.8.0+commit.c7dfd78e.Emscripten.clang"
  },
  "schemaVersion": "3.4.3",
  "updatedAt": "2021-09-08T21:15:29.158Z",
  "networkType": "ethereum",
  "devdoc": {
    "kind": "dev",
    "methods": {},
    "version": 1
  },
  "userdoc": {
    "kind": "user",
    "methods": {
      "constructor": {
        "notice": "Constructor inherits VRFConsumerBase  Network: Kovan Chainlink VRF Coordinator address: 0xdD3782915140c8f3b190B5D67eAc6dc5760C46E9 LINK token address:                0xa36085F69e2889c224210F603D836748e7dC0088 Key Hash: 0x6c3699283bda56ad74f6b855546325b68d482e983852a7a82979cc4807b641f4"
      },
      "getChainlinkToken()": {
        "notice": "Requests the address of the Chainlink Token on this network "
      },
      "getRandomNumber()": {
        "notice": "Requests randomness from a user-provided seed"
      }
    },
    "version": 1
  }
}