{
  "contractName": "VRFConsumer",
  "abi": [
    {
      "inputs": [
        {
          "internalType": "address",
          "name": "_vrfCoordinator",
          "type": "address"
        },
        {
          "internalType": "address",
          "name": "_link",
          "type": "address"
        }
      ],
      "stateMutability": "nonpayable",
      "type": "constructor"
    },
    {
      "inputs": [],
      "name": "randomnessOutput",
      "outputs": [
        {
          "internalType": "uint256",
          "name": "",
          "type": "uint256"
        }
      ],
      "stateMutability": "view",
      "type": "function"
    },
    {
      "inputs": [
        {
          "internalType": "bytes32",
          "name": "requestId",
          "type": "bytes32"
        },
        {
          "internalType": "uint256",
          "name": "randomness",
          "type": "uint256"
        }
      ],
      "name": "rawFulfillRandomness",
      "outputs": [],
      "stateMutability": "nonpayable",
      "type": "function"
    },
    {
      "inputs": [],
      "name": "requestId",
      "outputs": [
        {
          "internalType": "bytes32",
          "name": "",
          "type": "bytes32"
        }
      ],
      "stateMutability": "view",
      "type": "function"
    },
    {
      "inputs": [
        {
          "internalType": "bytes32",
          "name": "_keyHash",
          "type": "bytes32"
        },
        {
          "internalType": "uint256",
          "name": "_fee",
          "type": "uint256"
        }
      ],
      "name": "testRequestRandomness",
      "outputs": [
        {
          "internalType": "bytes32",
          "name": "requestId",
          "type": "bytes32"
        }
      ],
      "stateMutability": "nonpayable",
      "type": "function"
    }
  ],
  "bytecode": "0x60c060405234801561001057600080fd5b50604051610967380380610967833981810160405281019061003291906100c0565b81818173ffffffffffffffffffffffffffffffffffffffff1660a08173ffffffffffffffffffffffffffffffffffffffff1660601b815250508073ffffffffffffffffffffffffffffffffffffffff1660808173ffffffffffffffffffffffffffffffffffffffff1660601b8152505050505050610145565b6000815190506100ba8161012e565b92915050565b600080604083850312156100d357600080fd5b60006100e1858286016100ab565b92505060206100f2858286016100ab565b9150509250929050565b60006101078261010e565b9050919050565b600073ffffffffffffffffffffffffffffffffffffffff82169050919050565b610137816100fc565b811461014257600080fd5b50565b60805160601c60a05160601c6107f16101766000396000818160fa01526101d40152600061019801526107f16000f3fe608060405234801561001057600080fd5b506004361061004b5760003560e01c80626d6cae146100505780632f47fd861461006e578063866ee7481461008c57806394985ddd146100bc575b600080fd5b6100586100d8565b6040516100659190610556565b60405180910390f35b6100766100de565b60405161008391906105ff565b60405180910390f35b6100a660048036038101906100a191906103dc565b6100e4565b6040516100b39190610556565b60405180910390f35b6100d660048036038101906100d191906103dc565b6100f8565b005b60025481565b60015481565b60006100f08383610194565b905092915050565b7f000000000000000000000000000000000000000000000000000000000000000073ffffffffffffffffffffffffffffffffffffffff163373ffffffffffffffffffffffffffffffffffffffff1614610186576040517f08c379a000000000000000000000000000000000000000000000000000000000815260040161017d906105df565b60405180910390fd5b61019082826102f3565b5050565b60007f000000000000000000000000000000000000000000000000000000000000000073ffffffffffffffffffffffffffffffffffffffff16634000aea07f000000000000000000000000000000000000000000000000000000000000000084866000604051602001610208929190610571565b6040516020818303038152906040526040518463ffffffff1660e01b815260040161023593929190610518565b602060405180830381600087803b15801561024f57600080fd5b505af1158015610263573d6000803e3d6000fd5b505050506040513d601f19601f8201168201806040525081019061028791906103b3565b5060006102a98460003060008089815260200190815260200160002054610305565b90506001600080868152602001908152602001600020546102ca9190610647565b600080868152602001908152602001600020819055506102ea8482610341565b91505092915050565b80600181905550816002819055505050565b60008484848460405160200161031e949392919061059a565b6040516020818303038152906040528051906020012060001c9050949350505050565b600082826040516020016103569291906104ec565b60405160208183030381529060405280519060200120905092915050565b60008151905061038381610776565b92915050565b6000813590506103988161078d565b92915050565b6000813590506103ad816107a4565b92915050565b6000602082840312156103c557600080fd5b60006103d384828501610374565b91505092915050565b600080604083850312156103ef57600080fd5b60006103fd85828601610389565b925050602061040e8582860161039e565b9150509250929050565b6104218161069d565b82525050565b610430816106bb565b82525050565b610447610442826106bb565b610722565b82525050565b60006104588261061a565b6104628185610625565b93506104728185602086016106ef565b61047b81610765565b840191505092915050565b6000610493601f83610636565b91507f4f6e6c7920565246436f6f7264696e61746f722063616e2066756c66696c6c006000830152602082019050919050565b6104cf816106e5565b82525050565b6104e66104e1826106e5565b61072c565b82525050565b60006104f88285610436565b60208201915061050882846104d5565b6020820191508190509392505050565b600060608201905061052d6000830186610418565b61053a60208301856104c6565b818103604083015261054c818461044d565b9050949350505050565b600060208201905061056b6000830184610427565b92915050565b60006040820190506105866000830185610427565b61059360208301846104c6565b9392505050565b60006080820190506105af6000830187610427565b6105bc60208301866104c6565b6105c96040830185610418565b6105d660608301846104c6565b95945050505050565b600060208201905081810360008301526105f881610486565b9050919050565b600060208201905061061460008301846104c6565b92915050565b600081519050919050565b600082825260208201905092915050565b600082825260208201905092915050565b6000610652826106e5565b915061065d836106e5565b9250827fffffffffffffffffffffffffffffffffffffffffffffffffffffffffffffffff0382111561069257610691610736565b5b828201905092915050565b60006106a8826106c5565b9050919050565b60008115159050919050565b6000819050919050565b600073ffffffffffffffffffffffffffffffffffffffff82169050919050565b6000819050919050565b60005b8381101561070d5780820151818401526020810190506106f2565b8381111561071c576000848401525b50505050565b6000819050919050565b6000819050919050565b7f4e487b7100000000000000000000000000000000000000000000000000000000600052601160045260246000fd5b6000601f19601f8301169050919050565b61077f816106af565b811461078a57600080fd5b50565b610796816106bb565b81146107a157600080fd5b50565b6107ad816106e5565b81146107b857600080fd5b5056fea26469706673582212204f48a2054c1397a796fa1a167bb43176af9d10d822d075c1104f42f83746d0b264736f6c63430008000033",
  "immutableReferences": {
    "873": [
      {
        "length": 32,
        "start": 408
      }
    ],
    "875": [
      {
        "length": 32,
        "start": 250
      },
      {
        "length": 32,
        "start": 468
      }
    ]
  },
  "source": "// SPDX-License-Identifier: MIT\npragma solidity ^0.8.0;\n\nimport \"../interfaces/LinkTokenInterface.sol\";\nimport \"../VRFConsumerBase.sol\";\n\ncontract VRFConsumer is VRFConsumerBase {\n\n  uint256 public randomnessOutput;\n  bytes32 public requestId;\n\n  constructor(address _vrfCoordinator, address _link) public\n    // solhint-disable-next-line no-empty-blocks\n    VRFConsumerBase(_vrfCoordinator, _link) { /* empty */ }\n\n  function fulfillRandomness(bytes32 _requestId, uint256 _randomness)\n    internal override\n  {\n    randomnessOutput = _randomness;\n    requestId = _requestId;\n  }\n\n  function testRequestRandomness(bytes32 _keyHash, uint256 _fee)\n    external returns (bytes32 requestId)\n  {\n    return requestRandomness(_keyHash, _fee);\n  }\n}\n",
  "sourcePath": "@chainlink/contracts/src/v0.8/tests/VRFConsumer.sol",
  "compiler": {
    "name": "solc",
    "version": "0.8.0+commit.c7dfd78e.Emscripten.clang"
  },
  "schemaVersion": "3.4.3",
  "updatedAt": "2021-09-08T03:39:51.488Z",
  "devdoc": {
    "kind": "dev",
    "methods": {},
    "version": 1
  },
  "userdoc": {
    "kind": "user",
    "methods": {},
    "version": 1
  }
}